:020000040800F2
:1000000038080020010100084107000843070008E4
:10001000470700084B0700084F07000800000000D2
:10002000000000000000000000000000530700086E
:10003000550700080000000057070008590700088E
:100040001B0100081B0100081B0100081B01000820
:100050001B0100081B0100081B0100081B01000810
:100060001B0100081B0100081B0100081B01000800
:100070001B0100081B0100081B0100081B010008F0
:100080001B0100081B0100081B0100081B010008E0
:100090001B0100081B0100081B0100081B010008D0
:1000A0001B0100081B0100081B0100081B010008C0
:1000B0001B0100081B0100081B0100081B010008B0
:1000C0001B0100081B0100081B0100081B010008A0
:1000D0001B0100084B3700081B0100081B0100082A
:1000E0001B0100081B0100081B010008DFF80CD0F1
:1000F00003F0B4FB004800479102000838080020D4
:100100000648804706480047FEE7FEE7FEE7FEE7B1
:10011000FEE7FEE7FEE7FEE7FEE7FEE73B08000836
:10012000ED00000810B50021D74802F0D1FD0022F3
:100130000121D54802F0E7FD10BD10B5044600BF0F
:10014000601E84B20121D04803F09CF800BF012159
:10015000CD4803F086F80028F9D0002CF0D110BD6E
:10016000FEB50646012E04D0022E0BD0032E1CD164
:1001700011E00024C548006842F21071B0FBF1F0B4
:1001800085B213E00124C14800684FF4FA61B0FB66
:10019000F1F085B20AE040F23F24BC4800684FF419
:1001A0003461B0FBF1F085B200E000BF00BFADF8F4
:1001B0000450ADF800400020ADF80600ADF8020094
:1001C0006946B14802F028FA0021AF4803F014F85C
:1001D00001221146AC4802F096FD0121AA4802F026
:1001E00077FDFEBD10B504460120FFF7B9FFA0B2B0
:1001F000FFF7A3FFFFF796FF10BD10B500220821FF
:10020000A34801F040FD00224021A14801F03BFD40
:10021000002210219E4801F036FD002280219C48DA
:1002200001F031FD012000F05DFA4FF4FA60FFF7B4
:10023000D9FF01220821964801F025FD0122402125
:10024000934801F020FD01221021914801F01BFD8F
:10025000012280218E4801F016FD002000F042FAB4
:1002600000224FF400618A4801F00DFD0122910245
:10027000874801F008FD01F090F804463CB91A20C7
:1002800001F04BFA00220821814801F0FCFC10BD6E
:100290008EB000F01BFAFFF7B0FF4FF4E13003F02F
:1002A00008FA7CA003F00CFB00BF7FA003F008FB62
:1002B00000F044FB8249522000F04EFB044624B17A
:1002C0007F49522000F048FB04461CBB7C4A921C2C
:1002D000A2F10D01501C00F0E7FB044600F0D1FB39
:1002E00004467749262000F037FB04467449522023
:1002F00000F032FB04463CB9714A921CA2F10D0198
:10030000501C00F0D1FB044600224021604801F05F
:10031000BAFC04E0012240215D4801F0B4FC002C4D
:100320006BD167480B38407B00F02000F8B165497D
:10033000654800F062FC04469CB9644864A10A6800
:100340000260097901710520634908805F496248AC
:1003500000F094FC0446002210214D4801F093FC6B
:1003600055E0012210214A4801F08DFC4FE05B4B23
:10037000002260213F2000F039FE0446214658A0AB
:1003800003F09EFA002C42D150493D2000F069FE56
:10039000044659A003F094FA4C48C07B4B49897B32
:1003A0004A4A527B494B1B7BCDE90A32CDE90C10FE
:1003B0004648C27A807A4549497A444B1B7ACDE94E
:1003C0000631CDE908024148C079404989793F4A60
:1003D00052793E4B1B79CDE90232CDE904103B48FE
:1003E000C0783A498978CDE90010384843780278D6
:1003F0000146464803F064FA09E00122102124482E
:1004000001F041FC01228021214801F03CFC2D49F2
:10041000314800F053FF0446DCB905202E4908801E
:10042000084602883AA1294803F0D4F927492A4806
:1004300000F06AFF04468CB900224021144801F004
:1004400022FC35A003F03CFA204937A003F038FA2B
:1004500004E0012240210E4801F015FC25E7F8B523
:1004600005460E46174600240AE02A5D32A168467A
:1004700003F036FA06EB4400BDF800100180641C5E
:10048000BC42F2DBF8BD000000080040080000207C
:10049000000C0140696E69742E2E2E2E2E2E2E2EEB
:1004A0002E2E0D0A0D0A000072756E6E696E672E93
:1004B0002E2E2E2E2E2E2E2E2E0D0A0D0A00000070
:1004C0004B0000204F010020020000204F000020C0
:1004D000008400000800000000000020A63D000885
:1004E000706963634175746853746174653A203050
:1004F0007825780A00000000726561642031382098
:10050000736563746F72210A00000000AC3D00083F
:100510000036000008000000726561642066696EA4
:10052000697368210A000000B6C1B5BDB5C4D6B56F
:10053000CAC73A25730A000025303258000000006F
:1005400010B5012144F2060001F0B5FD01210D2096
:1005500001F0A4FD10BD08B54FF48050ADF80000C7
:1005600003208DF8020010208DF8030069466C48C6
:1005700001F0D8FA4FF46040ADF8000003208DF888
:10058000020018208DF803006946654801F0CAFA98
:100590004FF48070ADF8000003208DF802001020A9
:1005A0008DF8030069465F4801F0BCFA0420ADF8FD
:1005B000000003208DF8020048208DF803006946F2
:1005C000574801F0AFFA4FF44060ADF80000032047
:1005D0008DF8020010208DF803006946504801F0A4
:1005E000A1FAD820ADF8000003208DF802001420F5
:1005F0008DF8030069464A4801F094FA01214A48FF
:1006000001F061FB0121494801F05DFB08BD10B517
:1006100088B00024464800684649B0FBF1F0401E0F
:1006200084B24FF44870ADF81800ADF814400020C3
:10063000ADF81A00ADF8160005A93F4801F0ECFF2F
:100640006020ADF804000120ADF806004FF4FA7008
:10065000ADF80A000020ADF80C0001A9364802F000
:100660005AF80821344802F06CFC08B010BD10B5EF
:100670004FF4E06001F088F910BD00B585B00020AE
:10068000ADF800004FF48270ADF802004FF4006046
:10069000ADF804000020ADF80600ADF808004FF4F6
:1006A0000070ADF80A001020ADF80C000020ADF885
:1006B0000E000720ADF810006946204801F078FDD3
:1006C00001211E4801F019FE05B000BD10B5FFF76D
:1006D00037FFFFF740FFFFF7D0FFFFF798FFFFF767
:1006E000C6FF10BD70B505460D48046824F47004BB
:1006F00045B144F430000A49086001210E4802F077
:10070000E7FA0CE000210C4802F0E2FA44F4800021
:100710000349086001222021014801F0B4FA70BDAC
:10072000000C01400008014000081A0000023000DF
:100730000800002080841E000004004000380040B3
:10074000704700BFFEE700BFFEE700BFFEE700BF47
:10075000FEE7704770477047704700000CB50020F7
:10076000019000906C48006840F480306A4908604D
:1007700000BF6948006800F4003000900198401CF8
:100780000190009818B90198B0F5A06FF1D16248B6
:10079000006800F4003010B10120009001E000205A
:1007A00000900098012843D15C48006840F0100098
:1007B0005A4908600846006820F0030008600846AF
:1007C000006840F0020008605348406852494860A1
:1007D0000846406848600846406840F480604860C9
:1007E0000846406820F47C1048600846406840F4A1
:1007F000881048600846006840F08070086000BFBC
:100800004548006800F000700028F9D04248406870
:1008100020F00300404948600846406840F002006C
:10082000486000BF3C48406800F00C000828F9D13F
:100830000CBD10B5FFF792FF10BD10B5364800682B
:1008400040F00100344908600846406834490840D7
:100850003149486008460068324908402E4908601E
:100860000846006820F4802008600846406820F4AC
:10087000FE0048604FF41F008860FFF7DAFF4FF07A
:1008800000602949086010BD10B500210020002239
:10089000214B5B6803F00C0121B1042906D0082923
:1008A00028D107E0214B224C236027E01F4B204C2E
:1008B000236023E0184B5B6803F47010164B5B68F1
:1008C00003F48032022303EB904022B9194B4343D7
:1008D000174C23600DE0104B5B6803F4003323B129
:1008E000144B4343124C236003E0104B4343104C22
:1008F000236003E00D4B0E4C236000BF00BF064B8E
:100900005B68C3F303130C4CE15C094B1B68CB40E1
:10091000074C236010BD0000001002400020024080
:100920000000FFF8FFFFF6FE08ED00E000127A007D
:100930000800002000093D000C00002010B5002038
:1009400001F00DF83220FFF74DFC012001F007F80F
:100950003220FFF747FC10BD70B506460C461A2042
:1009600000F0DBFE002000F07FFD0821282000F0D1
:1009700061FD18212C2000F034FD18212D2000F0FD
:1009800030FD0F212E2000F02CFD00210C2000F066
:1009900028FDC021332000F04DFD20210B2000F068
:1009A00056FDFA4846700120F8490870072000F00B
:1009B0007CFD05464DB9F5480078022804D1F3487E
:1009C000B0F80100208000E0F525284670BD70B524
:1009D00004460D46002000F047FD18212C2000F0B1
:1009E00000FD18212D2000F0FCFC08212E2000F035
:1009F000F8FC00210C2000F0F4FC0220E349087010
:100A00000846447020218170072000F04EFD064604
:100A10002EB9DE480278411C284602F0DBFE304643
:100A200070BD2DE9F04104460D461646042000F045
:100A30001BFD19212C2000F0D4FC19212D2000F0E1
:100A4000D0FC00210C2000F0CCFC0720CF4908701E
:100A500008464470702181702968C0F80310297914
:100A6000C171072000F021FD07463FB9C748007853
:100A7000012800D0F527C548407830703846BDE8D9
:100A8000F08110B55020C14948700021BF488170E5
:100A90000220BE490870062000F007FD0446FF2C26
:100AA00000D10024204610BD2DE9F04106460C4639
:100AB000174621469320FFF78AFF05462DB93A468F
:100AC00021469320FFF7ADFF0546002D31D10420CC
:100AD0003070387800F0040058B3B4F8010020807A
:100AE000E078A070E11C9520FFF771FF05462DB955
:100AF0003A46E11C9520FFF794FF0546CDB9072043
:100B00003070387800F0040098B1A088A4F8030091
:100B1000A0796071A11D9720FFF759FF05462DB9F7
:100B20003A46A11D9720FFF77CFF05460DB90A2024
:100B300030702846BDE8F08170B504460D460520AA
:100B400000F092FCE02091494870914881788F48EC
:100B5000817002208D490870072000F0A6FC06462F
:100B600046B98A480278411C284602F033FE87487D
:100B700000782070304670BD01460020844A12790A
:100B8000082A01D1421CD0B2814A5279042A01D1EB
:100B9000421CD0B208291FD2DFE801F00405060785
:100BA000080F141900BF00BF00BF00BF0D2202EBE9
:100BB000C102121A764B9A7113E0C0F13D02744BD8
:100BC0009A710EE0C0F15D02714B9A7109E0C0F1BB
:100BD0007D026F4B9A7104E0C0F1FD026C4B9A717B
:100BE00000BF00BF704770B505460C460CB13B2CEA
:100BF00002DD284600F038FC70BD2DE9F0410746C3
:100C00000C460A206249C870402088700020087194
:100C10004871487021463846FFF78EFF064656BB9E
:100C20002078012827DD0225607800F0100008B147
:100C3000681CC5B2607800F0200028B1605D00112A
:100C40005349C870681CC5B2607800F0400068B1B4
:100C5000605D00F0020010B108204D490871605D30
:100C600000F0010010B1042049494871617801F099
:100C70000F00FFF781FF3046BDE8F0812DE9F05FFE
:100C800005460E464FF0000AD346D046C1464049BD
:100C9000C87800F0E9FBA2203C49487000BF3B48FF
:100CA000407800F0F200A22874D1002438488079FE
:100CB00040442988884229D23548007940F0120002
:100CC0003349497908433249497808432146621C2F
:100CD000D4B22E4A521C50542D480079082806D10F
:100CE00000222046611CCCB22849491C0A542848DD
:100CF0004079042806D100222046611CCCB2234949
:100D0000491C0A54224890F806A02AE0204800799D
:100D100040F002001E49497908431D4949780143C2
:100D20002046621CD4B2194A521C1154184800794A
:100D3000082806D100222046611CCCB21349491C68
:100D40000A5413484079042806D100222046611C29
:100D5000CCB20E49491C0A542878A0EB080000F0D8
:100D6000FF0A06EB0801094A521C1019524602F00C
:100D700031FD04EB0A00054908700548407880F011
:100D8000010003494870D04481E003E06F01002076
:100D90001C000020FE48407800F0F000102839D1F7
:100DA0000124FB48407800F0080008B1601CC4B280
:100DB000F748407800F0040008B1601CC4B2F44861
:100DC0000078001B00F0FF0BF14A521C111906EBD2
:100DD00009005A4602F0FEFCD9440124ED4800798E
:100DE00040F0A200EB4949780843E9494870E948D6
:100DF000007930B100222046611CCCB2E449491C84
:100E00000A54E3480470E348407880F00100E14967
:100E100048703CE0DE48407800F0F20002281FD124
:100E20000124DB48407800F0080008B1601CC4B21F
:100E3000D748407800F0040008B1601CC4B2D44820
:100E40000078001B00F0FF0BD14A521C111906EB71
:100E500009005A4602F0BEFC09EB0B0028801FE097
:100E6000CB48407800F0F200F2280ED10124C848A7
:100E7000407800F0080000B10224C54A521C115D00
:100E8000C44AD078FFF7AFFE01E0E02708E0072072
:100E900000F00BFB074607B902E0002F3FF4FFAE5E
:100EA00000BF3846BDE8F09F2DE9F04104460D46ED
:100EB00016461F461B2000F030FCB649C87800F0EB
:100EC000D3FA0520B249487008468570082000EA28
:100ED000C40006F007010843AD49C870032008703C
:100EE000072000F0E2FA8046B8F1000F0AD1A848C6
:100EF00000780C2806D1A6480278411C384602F03A
:100F000069FC01E04FF0E0084046BDE8F0812DE9C2
:100F1000F04104460D4616461F469E49C87800F02B
:100F2000A3FA1D209A49487008462168C0F80210AB
:100F300000218171C67105724172092094490870BF
:100F4000072000F0B2FA8046914840783870404659
:100F5000BDE8F08170B5044650208D4948700846C0
:100F60002168C0F80210052089490870072000F0A8
:100F70009CFA0546284670BD2DE9F04180460F4693
:100F8000144605208349C8704020887000200871ED
:100F9000487148702346002211464046FFF784FFFF
:100FA000054605BBA07A0611E07A00117949C870A0
:100FB000E07A00F0010008B108200871E07A00F042
:100FC000020010B10420734948713046FFF7D4FD88
:100FD00004F10C0332460121601CFFF798FF05461F
:100FE0000DB90C2038702846BDE8F0812DE9F0419C
:100FF00005460E4690461F46052000F035FA644827
:10100000401C39680160B9888180062060490870F9
:10101000022000F04AFA0446B4B906F0800018B184
:1010200061205B49487002E0602059494870584887
:10103000857059490968C0F80310062054490870A2
:10104000032000F032FA044644B90B2000F07CF98A
:1010500000F0200008B1002400E0FC242046BDE898
:10106000F08170B506460C46052000F0FDF9192107
:101070002C2000F0B6F919212D2000F0B2F908213A
:101080002E2000F0AEF900210C2000F0AAF9404813
:10109000867030203E49487002200870072000F01A
:1010A00004FA05465DB93A480078102801D0F425C5
:1010B00005E010223649491C204602F08BFB2846E9
:1010C00070BD70B505460E46052000F0CDF918211B
:1010D0002D2000F086F919212C2000F082F9A020A3
:1010E0002B4948700846857002200870072000F0E0
:1010F000DCF90446F82C0CD12548407800F00F00AC
:1011000023494870084640780A2801D1002400E0AD
:10111000F124F4B9052000F0A7F9102231461C484B
:10112000401C02F057FB102019490870072000F0FE
:10113000BCF90446F82C0CD11548407800F00F009B
:1011400013494870084640780A2801D1002400E07D
:10115000F124204670BD70B50546052000F084F9E5
:1011600018212D2000F03DF919212C2000F039F92B
:10117000B020074948700846857002200870072093
:1011800000F093F90446F82C15D10148407805E0A9
:101190006F0100201C0000204000002000F00F0024
:1011A0006749487008460078012804D1084640780D
:1011B0000A2800D10024204670BD2DE9F0410646E2
:1011C0000D461746052000F04FF918212D2000F09C
:1011D00008F919212C2000F004F95948467085704F
:1011E000022057490870072000F05FF90446F82CE8
:1011F00022D15348407800F00F005149487008460A
:101200000078012818D1084640780A2814D1052012
:1012100000F02AF94A483968C0F80110042048490A
:101220000870072000F041F904460CB1FF2C03D1EF
:101230002846FFF790FF04462046BDE8F08170B5D0
:101240000546052000F010F918212D2000F0C9F8FE
:1012500019212C2000F0C5F8C220394948700846F1
:10126000857002200870072000F01FF90446F82C52
:1012700022D13348407800F00F00314948700846C9
:101280000078012818D1084640780A2814D1052092
:1012900000F0EAF800202A494870002128488170AF
:1012A000C1700171042026490870072000F0FDF884
:1012B0000446FF2C00D10024204670BD70B50646C0
:1012C0000C4604201F49C87040208870082008710F
:1012D0000020487148702346002211461046FFF74F
:1012E000E3FD054675B9E07A00111649C87004F1AE
:1012F0000C0308220121601CFFF709FE05460DB909
:101300000C203080284670BD70B504460D4620780C
:101310000B490870084602782946401C02F05AFA28
:10132000072000F0C2F8064646B905480278411C7D
:10133000284602F04FFA024800782080304670BDFF
:101340006F0100201C00002070B50446002500221B
:101350004FF48051FE4800F096FC4FF4807040EA54
:10136000442085B200BFFB48008800F0020000283E
:10137000F9D0F848001D058000BFF648008800F04D
:1013800001000028F9D0F348001D058801228114CE
:10139000EF4800F078FCE8B270BD70B500264FF65B
:1013A000FF7501221102EC4800F06DFC3220FEF7BF
:1013B00019FF00224FF48071E74800F064FC00BF81
:1013C0000020FFF7C1FF04466D1E0DB1402CF7D180
:1013D0000DB9E72603E07F20FFF7B6FF044630464D
:1013E00070BD70B504460D4600224FF48051D848B8
:1013F00000F049FC45EA442086B24FF6FF60064003
:1014000000BFD448008800F002000028F9D0D1487D
:10141000001D068000BFCF48008800F001000028B2
:10142000F9D0CC48001D068801228114C84800F07C
:101430002AFC70BD70B505460C462846FFF784FFB0
:10144000064646EA04012846FFF7CBFF70BD70B59B
:1014500005460C462846FFF777FF064626EA0401B4
:101460002846FFF7BEFF70BD2DE9F04104464FF45A
:10147000805502270120A0400C30C619290A1020EF
:10148000FFF7AFFFE9B21120FFF7ABFFC6F307216B
:101490001520FFF7A6FFF1B21620FFF7A2FF3321B8
:1014A0000E20FFF79EFFBDE8F0812DE9FF5F80462B
:1014B0004FF0000A4FF0010B00200390029000272C
:1014C00001900090A8F102000C284AD2DFE800F059
:1014D000232C4949353E06490F49491A10200390EB
:1014E0004020029000200190402000903CE010201D
:1014F00003904020029000200190402000904FF087
:10150000010A31E010200390422002901020019047
:101510000220009028E01820039042200290002032
:101520000190402000901FE018200390422002907C
:10153000002001904020009016E0182003904220E7
:10154000029008200190422000900DE014200390AA
:101550004220029010200190022000904FF0010ADA
:1015600002E04FF0E90800BF00BFB8F1E90F7CD0FE
:1015700000210846FFF735FF7F210620FFF731FFE6
:101580007F210720FFF72DFF00210820FFF729FF0B
:1015900000210920FFF725FF08200399FFF721FF0D
:1015A00009200299FFF71DFF10210220FFF742FFDB
:1015B000002406E06948015D0520FFF712FF601C6A
:1015C00084B26648401E0078A042F3DC4146002009
:1015D000FFF707FF4CF2503400BF0620FFF7B4FEC0
:1015E00006460720FFF7B0FE0746601E84B234B1FE
:1015F0000198304018B9009838400028EDD0002CF0
:1016000047D007F00200002843D10A20FFF79CFED4
:10161000054615B94FF0000B13E005F0020010B1BC
:101620004FF0EB0B0DE005F0040010B14FF0E80BAC
:1016300007E005F0010010B14FF0FE0B01E04FF0A4
:10164000820BBAF1000F2CD00420FFF77DFE064676
:101650000C20FFF779FE00F007073FB1701E07EB83
:10166000C0003E49491E087003E01AE03B48401E96
:1016700006704FF0000909E00520FFF765FE3749C5
:1016800001F8090009F1010000F0FF09B145F3DBA1
:1016900007E007F0020010B14FF0FF0B01E04FF040
:1016A000830B00210846FFF79CFE7F210620FFF7F1
:1016B00098FE7F210720FFF794FE00210820FFF706
:1016C00090FE00210920FFF78CFE33210E20FFF74A
:1016D00088FE80210F20FFF7ADFE80211420FFF748
:1016E000A9FE0520FEF77EFD584604B0BDE8F09F38
:1016F00070B504460D4600260020FFF7B5FE1748DA
:10170000401E4470857002201449491E08700D2047
:10171000FFF7CBFE0646304670BD70B50446E025A7
:101720001A2C71D100210846FFF7E2FF054625B1CA
:1017300000210846FFF7DCFF054698210F20FFF740
:1017400050FE92211420FFF74CFE1021022007E0EA
:10175000000C0140083800400008014070010020E2
:10176000FFF73FFE30210320FFF73BFE88210C20CE
:10177000FFF737FE8D212820FFF733FE8021292037
:10178000FFF72FFE01212A20FFF72BFE05212B203A
:10179000FFF727FE00213420FFF723FE1221382017
:1017A000FFF71FFE18212C20FFF71BFE18212D200C
:1017B000FFF717FE08212E20FFF713FE27212F2009
:1017C000FFF70FFE00213020FFF70BFEC021312074
:1017D000FFF707FE12213220FFF703FECF2133204F
:1017E000FFF7FFFD04213520FFF7FBFD7F213720A8
:1017F000FFF7F7FD0F213920FFF7F3FD9021362089
:10180000FFF7EFFD6CE0FFE71B2C67D104210846D2
:10181000FFF76EFF054625B104210846FFF768FF74
:10182000054698210F20FFF7DCFD92211420FFF7D9
:10183000D8FD10210220FFF7D4FD30210320FFF74F
:10184000D0FD80210C20FFF7CCFD8F212820FFF751
:10185000C8FD8F212920FFF7C4FD01212A20FFF7B1
:10186000C0FD05212B20FFF7BCFD00213420FFF730
:10187000B8FD12213820FFF7B4FD7B212C20FFF7A3
:10188000B0FD7B212D20FFF7ACFD08212E20FFF7B6
:10189000A8FD00212F20FFF7A4FD00213020FFF735
:1018A000A0FD01213120FFF79CFD05213320FFF72A
:1018B00098FD00213420FFF794FD34213520FFF7F7
:1018C00090FD7F213720FFF78CFD06213920FFF79F
:1018D00088FD9F213620FFF784FD01E0FF2070BDC9
:1018E0001E20FEF77FFC2846F9E710B504466CB1D0
:1018F00008212820FFF7ABFD04EB84014800FEF728
:1019000071FC08212820FFF795FD03E0082128201D
:10191000FFF79DFD10BD08281BD2DFE800F004058D
:101920000607080E121600BF00BF00BF00BF0E2141
:1019300001EBC001134A91700FE03E21114A9170F2
:101940000BE05E210F4A917007E07E210D4A9170F5
:1019500003E0FE210B4A917000BF00BF704770B5D5
:1019600004462820FFF7F0FC05462CB145F008019D
:101970002820FFF736FD04E025F008012820FFF7B6
:1019800030FD70BD1C00002031490143314A116017
:10199000704770B5002100230F22C47804B32D4C8A
:1019A000246804F4E064C4F5E064210AC1F104038E
:1019B000CA40447804FA03F18478144021430901B1
:1019C000254C0678A155047804F01F050124AC408D
:1019D00005786D11AD0005F1E025C5F8004109E07D
:1019E000047804F01F050124AC401C4D06787611E4
:1019F00045F8264070BD1A4A0A400243154B1B1F8A
:101A00001A60704739B1134A121D12680243114B14
:101A10001B1D1A6006E00F4A121D126882430D4B0F
:101A20001B1D1A607047042808D14FF0E021096996
:101A300041F004014FF0E022116107E04FF0E02196
:101A4000096921F004014FF0E022116170470000A4
:101A50000000FA050CED00E000E400E080E100E0A9
:101A600080FFFF1F10B50446CC48844208D10121F5
:101A7000042000F02DFB0021042000F029FB46E0AB
:101A8000C748844208D10121082000F021FB002131
:101A9000082000F01DFB3AE0C248844208D1012131
:101AA000102000F015FB0021102000F011FB2EE0AB
:101AB000BD48844208D10121202000F009FB00210B
:101AC000202000F005FB22E0B848844208D1012123
:101AD000402000F0FDFA0021402000F0F9FA16E065
:101AE000B348844208D10121802000F0F1FA00219E
:101AF000802000F0EDFA0AE0AE48844207D10121CF
:101B0000801500F0E5FA0021A01500F0E1FA10BD03
:101B100010B50121084600F0DBFA0021012000F099
:101B2000D7FA10BD2DE9F04102460025002600201D
:101B300000230024002791F803C00CF00F0591F852
:101B400003C00CF0100CBCF1000F03D091F802C0E0
:101B50004CEA050591F800C0BCF1000F31D01468C3
:101B600000202BE04FF0010C0CFA00F3B1F800C09C
:101B70000CEA03069E4220D183004FF00F0C0CFAB2
:101B800003F7BC4305FA03FC4CEA040491F803C0D4
:101B9000BCF1280F06D14FF0010C0CFA00FCC2F882
:101BA00014C00AE091F803C0BCF1480F05D14FF012
:101BB000010C0CFA00FCC2F810C0401C0828D1D35C
:101BC0001460B1F800C0BCF1FF0F34DD5468002090
:101BD0002EE000F1080C4FF0010808FA0CF3B1F800
:101BE00000C00CEA03069E4221D183004FF00F0C87
:101BF0000CFA03F7BC4305FA03FC4CEA040491F821
:101C000003C0BCF1280F05D100F1080C08FA0CF84C
:101C1000C2F8148091F803C0BCF1480F07D100F15D
:101C2000080C4FF0010808FA0CF8C2F81080401CAC
:101C30000828CED35460BDE8F0814FF6FF710180D3
:101C4000022181700421C170704702460020936810
:101C50000B400BB1012000E000207047014688686E
:101C600080B2704702460020D3680B400BB10120C0
:101C700000E0002070470146C86880B270470161EB
:101C80007047416170470AB1016100E041617047EE
:101C9000C16070474FF480320A4382618161826182
:101CA00082698269704702460020434B18684FF6EC
:101CB0008073184040EA021008433F4B1860704799
:101CC0003E49C8617047F0B50A4600230024002150
:101CD000002500F00046B6F1004F02D1364EF16902
:101CE00001E0354E7168C0F3034583B200F440163D
:101CF000B6F5401F08D121F070612F4E766826F0AE
:101D000070662D4F7E6012E000F48016B6F5801FDD
:101D100006D1032606FA05F4A14341F0706106E0FE
:101D2000460D360103FA06F6B14341F0706122B167
:101D3000460D360103FA06F6314300F00046B6F1CF
:101D4000004F02D11C4EF16101E01B4E7160F0BDED
:101D500030B500228B071C0F0F2303FA04F2164B39
:101D600008338C1053F824309343134C08348D10EF
:101D700044F8253023468C1053F824308C07240F68
:101D800000FA04F423430C4C08348D1044F8253039
:101D900030BD0A49DC31086070470000000801408E
:101DA000000C0140001001400014014000180140E7
:101DB000001C0140002001400000014000002042C2
:101DC000DF48006840F00100DD49086008464068CF
:101DD000DC490840DA49486008460068DA490840AA
:101DE000D74908600846006820F48020086008464B
:101DF000406820F4FE0048604FF41F008860704780
:101E0000CF49096821F48031CD4A11601146096833
:101E100021F480211160B0F5803F03D0B0F5802F10
:101E20000ED106E0C649096841F48031C44A116008
:101E300007E0C349096841F4A021C14A116000E0EC
:101E400000BF00BF704710B50146002200230020EC
:101E50004A11012A02D1BA4C236806E0022A02D1B3
:101E6000B74C236A01E0B64C636A01F01F020124FB
:101E700094401C400CB1012000E0002010BD38B59A
:101E8000002000900024002500BF3120FFF7DBFF79
:101E900005460098401C00900098B0F5A06F01D056
:101EA000002DF2D03120FFF7CEFF08B1012400E071
:101EB0000024204638BD01460020A14A106820F0C9
:101EC000F80040EAC10010607047A0490860704700
:101ED000024600209A4B586820F47C1042EA010325
:101EE0001843974B586070479849086670470146F9
:101EF0000020934A506820F0030008435060704768
:101F00008F48406800F00C007047014600208C4A62
:101F1000506820F0F00008435060704701460020F0
:101F2000874A506820F4E0600843506070470146DB
:101F30000020834A506820F4605040EAC10050609D
:101F4000704729B17E4A527A02437D4B5A7204E0AF
:101F50007B4A527A82437A4B5A7270477B49D83116
:101F60000860704701460020754A506820F44040E0
:101F70000843506070470021714A20321170704A46
:101F800082F82010012802D004280AD104E001219F
:101F90006B4A2032117005E00521694A2032117028
:101FA00000E000BF00BF704769490860704764499E
:101FB000096A0143624A1162704765494439086001
:101FC000704730B500210022002400235C4D6D686D
:101FD00005F00C0121B1042905D0082923D105E021
:101FE0005C4D056022E05B4D05601FE0544D6D685F
:101FF00005F47012524D6D6805F48034022505EB2E
:1020000092421CB9544D554305600BE04C4D6D6830
:1020100005F400351DB1504D5543056002E04D4DAE
:102020005543056002E04B4D056000BF00BF444DC5
:102030006D6805F0F0010909484D6B5C0568DD40ED
:1020400045603F4D6D6805F4E061090A434D6B5CE6
:102050004568DD4085603A4D6D6805F46051C90AF8
:102060003E4D6B5C4568DD40C560354D6D6805F4DF
:102070004041890B3A4D6B5CC568B5FBF3F50561D2
:1020800030BD29B12E4A526902432D4B5A6104E0FA
:102090002B4A526982432A4B5A61704729B1284A18
:1020A00092690243264B9A6104E0254A9269824371
:1020B000234B9A61704729B1214AD2690243204BD0
:1020C000DA6104E01E4AD26982431D4BDA6170472F
:1020D00029B11B4AD2680243194BDA6004E0184A5E
:1020E000D2688243164BDA60704729B1144A1269EC
:1020F0000243134B1A6104E0114A12698243104BE8
:102100001A61704712494039086070470F49C86426
:1021100070470B49C87170470948406A40F08070A9
:1021200007494862704701460020054A92680A4004
:102130000AB1012000E00020704701498872704711
:10214000001002400000FFF8FFFFF6FE00004242D0
:102150008004424200127A0000093D002300002062
:102160003300002010B50446BE48844208D1012146
:102170008014FFF7ADFF0021A014FFF7A9FF16E0C0
:10218000B948844208D101210014FFF7AEFF0021B5
:102190002014FFF7AAFF0AE0B448844207D10121C6
:1021A000C013FFF7A2FF0021E013FFF79EFF10BD51
:1021B00010B50022028802F441520B884C88234358
:1021C0008C882343CC8823430C8923434C892343A5
:1021D0008C892343CC8923431A430280838B4FF29B
:1021E000FF74234083830B8A038210BD2DE9F04FD7
:1021F00085B005460C464FF0000902274FF0000855
:102200004FF0010B0026B246A88B4FF24001084068
:10221000A88302202884B5F81C90A068022801D168
:1022200000BF38E0A08810B94FF0010B01E04FF07B
:10223000020B8D48854200D100E000BF6846FFF7E1
:10224000C0FEDDF800A0E088B0F5007F0AD14FEABB
:102250001A2000EB80004000A168B0FBF1F0401DA7
:1022600086B20BE04FEA4B10BAFBF0F000EB8000B7
:102270004000A168B0FBF1F0401D86B20A20B6FB19
:10228000F0F606F00108A6EB0800C0F34F074FF682
:10229000FF7000EA0828022F01DBFF2F02DD022772
:1022A0004FF00008E08840EA080038432884A088FE
:1022B000A1890843618808432188084340F40060ED
:1022C00040EA0909A5F81C9005B0BDE8F08F00218F
:1022D000018041808180C180018141818181C181F2
:1022E0000721018270470021018041808180C180E7
:1022F0000221816000218181704721B1028842F072
:102300004002028004E002884FF6BF731A40028048
:10231000704721B1828B42F48062828304E0828B19
:102320004FF6FF331A408283704730B500240023F4
:102330000C110125A540ABB21AB185881D438580DB
:1023400002E085889D43858030BD1AB183880B43A8
:10235000838002E083888B4383807047818170474C
:102360000146888970474FF6FF62914204D0028887
:1023700042F48072028004E002884FF6FF631A4044
:102380000280704721B1828842F00402828004E01A
:1023900082884FF6FB731A408280704702884FF2A2
:1023A000FF731A40028002880A4302807047018846
:1023B00041F480510180704721B1028842F40052FB
:1023C000028004E002884DF6FF731A4002807047D5
:1023D00002460020012901D0108B00E0908A70474E
:1023E0000146088A7047B1F5804F04D1028842F453
:1023F0008042028004E002884BF6FF731A4002809C
:1024000070470246002013890B400BB1012000E009
:1024100000207047CA4302817047F0B50246002091
:1024200000240023002501F00F070126BE40B4B2AE
:102430000B1101269E40B3B2968806EA0305168961
:10244000264016B10DB1012000E00020F0BD10B50E
:10245000002201F00F040123A3409AB2D343038169
:1024600010BD00000030014000380040003C00403A
:1024700010B50446FE48844208D10121C014FFF77C
:1024800027FE0021E014FFF723FEC4E0B4F1804FE3
:1024900008D101210846FFF728FE00210120FFF79F
:1024A00024FEB8E0F348844208D101210220FFF75E
:1024B0001CFE00210220FFF718FEACE0EE4884422B
:1024C00008D101210420FFF710FE00210420FFF7AE
:1024D0000CFEA0E0E948844208D101210820FFF762
:1024E00004FE00210820FFF700FE94E0E448844247
:1024F00008D101211020FFF7F8FD00211020FFF77F
:10250000F4FD88E0DF48844208D101212020FFF754
:10251000ECFD00212020FFF7E8FD7CE0DA48844252
:1025200008D101214014FFF7D3FD00216014FFF70B
:10253000CFFD70E0D548844209D10121C804FFF7DE
:10254000C7FD00214FF40020FFF7C2FD63E0D04833
:10255000844209D101210805FFF7BAFD00214FF49B
:102560008010FFF7B5FD56E0CA48844209D1012129
:102570004805FFF7ADFD00214FF40010FFF7A8FD5F
:1025800049E0C548844208D101214020FFF7ADFD54
:1025900000214020FFF7A9FD3DE0C048844208D15A
:1025A00001218020FFF7A1FD00218020FFF79DFD84
:1025B00031E0BB48844208D101218015FFF795FD29
:1025C0000021A015FFF791FD25E0B648844209D10E
:1025D00001210804FFF77CFD00214FF48030FFF754
:1025E00077FD18E0B048844209D101214804FFF783
:1025F0006FFD00214FF40030FFF76AFD0BE0AB48A0
:10260000844208D101218804FFF762FD00214FF4C4
:102610008020FFF75DFD10BD00220288944B984298
:102620000ED0994B98420BD0B0F1804F08D0914B0F
:10263000984205D0904B984202D0904B984204D1DA
:102640004FF68F731A404B881A438D4B984207D030
:102650008C4B984204D04FF6FF431A40CB881A4364
:1026600002808B8883850B880385814B98420BD031
:10267000854B984208D08B4B984205D08A4B9842A4
:1026800002D08A4B984201D10B7A038601238382C0
:10269000704770B5002400220023058C4FF6FE76AB
:1026A00035400584028C8388048B4FF68F752C404F
:1026B000B51E2C400D882C43751E2A400D892A43D7
:1026C0004D882A436A4DA8420BD06F4DA84208D0CE
:1026D000744DA84205D0744DA84202D0734DA84253
:1026E00013D14FF6F7752A404D892A434FF6FB75F3
:1026F0002A408D882A434FF6FF652B404FF6FF5541
:102700002B408D892B43CD892B4383800483CD8837
:102710008586028470BD70B5002400220023058CDC
:102720004FF6EF7635400584028C8388048B48F69B
:10273000FF752C404FF6FF452C400D884FF6FF7675
:1027400006EA05252C434FF6DF752A400D8906EA77
:1027500005152A434D8806EA05152A43444DA8422B
:1027600002D0494DA8421DD14FF67F752A404D89B0
:102770004FF6FF7606EA05152A434FF6BF752A4045
:102780008D8806EA05152A434FF6FF352B404FF298
:10279000FF752B408D8906EA85052B43CD8906EA16
:1027A00085052B4383800483CD880587028470BD13
:1027B00070B5002400220023058C4FF6FF663540DB
:1027C0000584028C8388848B4FF68F752C404FF6DE
:1027D000FC752C400D882C434FF6FF552A400D897F
:1027E0004FF6FF7606EA05252A434D8806EA0525B9
:1027F0002A431F4DA84202D0234DA8421DD14FF2BB
:10280000FF752A404D894FF6FF7606EA05252A43D3
:102810004FF6FF352A408D8806EA05252A434EF6F5
:10282000FF752B404DF6FF752B408D8906EA051587
:102830002B43CD8906EA05152B4383808483CD88FD
:102840008587028470BD70B5002200230024058CAA
:102850004EF6FF7635400584038C8488828B48F6DB
:10286000FF752A404FF6FF452A400D8820E0000002
:10287000002C01400004004000080040000C004013
:10288000001000400014004000340140004C0140A2
:10289000005001400054014000180040001C00405E
:1028A0000020004000400140004401400048014039
:1028B0004FF6FF7606EA05252A434DF6FF752B40B5
:1028C0000D8906EA05352B434D8806EA05352B436D
:1028D000FA4DA84202D0FA4DA84208D14BF6FF7536
:1028E0002C408D894FF6FF7606EA85152C438480AF
:1028F0008283CD88A0F84050038470BD828B4FF254
:10290000FF331A408283828B4FF6FF7303EA012361
:102910001A4382837047F0B50C4615460022002109
:102920000026078C4EF6FF7C07EA0C070784828B93
:10293000018C4FF6FF7707EA043640F6FF473A402E
:102940004FF6FF7707EA05273A434FF6FF7707EA86
:1029500003373A43D94FB8420ED0D94FB8420BD0C3
:10296000B0F1804F08D0D74FB84205D0D64FB8420B
:1029700002D0D64FB84206D14DF6FF77394046F423
:102980008057394305E047F6FF57394044F48057F4
:10299000394382830184F0BD828B4FF6F3731A4072
:1029A0008283828B0A4382837047F0B50C461546BA
:1029B000002200210026078C4FF6FF6C07EA0C0767
:1029C0000784828B018C4FF6FF7707EA04264FF6C7
:1029D0000C773A404FF6FF7707EA03172F433A4345
:1029E000B64FB8420ED0B64FB8420BD0B0F1804FC0
:1029F00008D0B44FB84205D0B34FB84202D0B34F5D
:102A0000B84206D14FF6FF57394046F48077394334
:102A100005E04FF2FF57394044F480773943828311
:102A20000184F0BD028B4FF2FF331A400283028B08
:102A30004FF6FF7303EA01231A4302837047F0B590
:102A40000C461546002200210026078C4FF6EF7C2D
:102A500007EA0C070784028B018C4FF6FF7707EA21
:102A6000041640F6FF473A404FF6FF7707EA033770
:102A70003A434FF6FF7707EA05273A438F4FB842AC
:102A80000ED08F4FB8420BD0B0F1804F08D08D4F91
:102A9000B84205D08C4FB84202D08C4FB84206D114
:102AA0004FF6DF77394046F01007394305E04FF61F
:102AB0005F77394044F01007394302830184F0BD49
:102AC000028B4FF6F3731A400283028B0A43028390
:102AD0007047F0B50C46154600220021068C4FF6D3
:102AE000FE773E400684028B018C4FF60C76324016
:102AF0007E1C06EA03162E433243704EB0420ED0BF
:102B00006F4EB0420BD0B0F1804F08D06D4EB04246
:102B100005D06D4EB04202D06C4EB04206D14FF699
:102B2000FD76314044F00106314305E04FF6F5767D
:102B3000314044F00106314302830184F0BD70B599
:102B400005460C465D4885420ED05D4885420BD057
:102B5000B5F1804F08D05B48854205D05A48854280
:102B600002D05A48854200D100E000BF208850B909
:102B70002389A28861882846FFF7ABFFE1882846B1
:102B8000FFF79EFF25E0208804280AD12389A28828
:102B900061882846FFF753FFE1882846FFF742FF88
:102BA00017E0208808280AD12389A288618828464E
:102BB000FFF7FBFEE1882846FFF7EEFE09E02389D8
:102BC000A28861882846FFF7A6FEE1882846FFF71D
:102BD00095FE70BD2DE9F04105460C460026012703
:102BE000608808B9022600E00026A088012801D1EB
:102BF000022700E001272088A0B92389A2886188E4
:102C00002846FFF766FFE1882846FFF759FF23892A
:102C10003A4631462846FFF712FFE1882846FFF77B
:102C200001FF13E02389A28861882846FFF707FF88
:102C3000E1882846FFF7F6FE23893A4631462846C2
:102C4000FFF747FFE1882846FFF73AFFBDE8F0812C
:102C50000A884B881A438B881A43CB881A430B89FE
:102C60001A434B891A438B891A43A0F844207047B2
:102C70004FF6FF71818000210180C1804180017287
:102C800070470021018041808180C18001814181A4
:102C90008181C181704700210180418001218180B3
:102CA0000021C18001817047002101804180818025
:102CB000C18001814181818170470000002C014069
:102CC000003401400004004000080040000C0040B7
:102CD00021B1028842F00102028004E002884FF62E
:102CE000FE731A400280704731B1B0F8442042F4BC
:102CF0000042A0F8442005E0B0F84420C2F30E02E0
:102D0000A0F8442070471AB183890B43838102E005
:102D100083898B43838170478182704741EA020334
:102D2000A0F8483070471AB183890B43838102E0D1
:102D300083898B438381704701894FF6F872114074
:102D4000018170470A46002101894FF68F731940AF
:102D500011430181704730B504460D46294620468F
:102D6000FFF7F0FF208940F00700208130BD2DE9FA
:102D7000F04104460D4616461F46602D06D13B46DF
:102D8000012231462046FFF75AFE05E03B4601226C
:102D900031462046FFF79DFE29462046FFF7D2FF29
:102DA000208940F007002081BDE8F08130B50C4655
:102DB00000210189C9B24FF6FF7505EA03251543C5
:102DC00025432943018130BD2DE9F04105460E46DA
:102DD00017469846002443463A4631462846FFF7B0
:102DE000E5FF2C894FF6F870044044F007044FF6D5
:102DF0008F70044044F070042C81BDE8F081F0B580
:102E000004460D4616461F463B4632462946204696
:102E1000FFF7CCFF208940F480402081F0BD018580
:102E2000828270470A46002101884FF68F7319404D
:102E3000114301807047F0B50C4615461E4600212F
:102E4000002200230189028B038C4FF6F87739406A
:102E500021434FF6FC473A4040F201173A434FF600
:102E6000DD773B404FF6FF7707EA06172F433B43DA
:102E7000018102830384F0BD0A460021018B4FF6D5
:102E80008F7319401143018370470A460021018B5B
:102E900048F6FF7319404FF6FF7303EA0223194304
:102EA000018370470A460021818B4FF68F731940CA
:102EB0001143818370470A460021818B48F6FF73D6
:102EC00019404FF6FF7303EA0223194381837047C9
:102ED00021B1028842F08002028004E002884FF6AD
:102EE0007F731A400280704721B1828842F0040249
:102EF000828004E082884FF6FB731A40828070471C
:102F000021B1828842F00802828004E082884FF674
:102F1000F7731A408280704721B1828842F0010223
:102F2000828004E082884FF6FE731A4082807047E8
:102F30000A460021018B4FF6F773194011430183B4
:102F400070470A460021018B4FF2FF7319404FF67C
:102F5000FF7303EA02231943018370470A460021E5
:102F6000818B4FF6F77319401143818370470A46EE
:102F70000021818B4FF2FF7319404FF6FF7303EA74
:102F800002231943818370470A460021018B4FF6C3
:102F9000FB7319401143018370470A460021018BDE
:102FA0004FF6FF3319404FF6FF7303EA022319432C
:102FB000018370470A460021818B4FF6FB7319404D
:102FC0001143818370470A460021818B4FF6FF33FE
:102FD00019404FF6FF7303EA0223194381837047B8
:102FE0000A460021018B4FF67F731940114301837C
:102FF00070470A460021018BC1F30E014FF6FF73A3
:1030000003EA02231943018370470A460021818B9A
:103010004FF67F7319401143818370470A460021A0
:10302000818BC1F30E014FF6FF7303EA02231943AC
:10303000818370470A460021018C4FF6FD731940C9
:103040001143018470470A460021018C4FF6F77343
:1030500019401143018470470A460021018C4FF644
:10306000DF7319404FF6FF7303EA0213194301841B
:1030700070470A460021018C4FF67F7319404FF6C6
:10308000FF7303EA02131943018470470A460021C3
:10309000018C4FF6FF5319404FF6FF7303EA0223EA
:1030A0001943018470470A460021018C4FF2FF73D7
:1030B00019404FF6FF7303EA022319430184704756
:1030C0000A460021018C4DF6FF7319404FF6FF733D
:1030D00003EA023319430184704730B50023012409
:1030E0008C40A3B2048C9C430484048C02FA01F546
:1030F000ADB22C43048430BD30B5002304248C4091
:10310000A3B2048C9C430484048C02FA01F5ADB292
:103110002C43048430BD70B50346002000241846BB
:10312000183001258D40ACB21D8CA5431D8409B11A
:10313000082909D100EB6100056825F070050560DC
:103140000568154305600EE00D1FC5F34E052844C4
:10315000056825F4E045056005684FF6FF7606EA48
:1031600002263543056070BD21B1028842F002029B
:10317000028004E002884FF6FD731A400280704717
:1031800021B1028842F00402028004E002884FF676
:10319000FB731A400280704721B1828842F080029E
:1031A000828004E082884FF67F731A4082807047E5
:1031B00002884FF6F7731A40028002880A430280A1
:1031C000704782884FF68F731A40828082880A4344
:1031D0008280704702894FF6F8731A400281028993
:1031E0000A430281704702894FF67F731A400281B9
:1031F00002890A4302817047818470478185704744
:10320000818670470187704781877047A0F840101A
:10321000704702884FF6FF431A40028002880A4333
:10322000028070470146888E70470146088F7047BC
:103230000146888F70470146B1F84000704701464B
:10324000888C70470146088D704702460020138A1B
:103250000B400BB1012000E000207047CA430282FE
:10326000704730B50246002000230024158A05EA85
:103270000103958905EA010413B10CB1012000E0B6
:10328000002030BDCA4302827047000010B50446DA
:10329000FB48844209D101218803FEF719FF002170
:1032A0004FF48040FEF714FF32E0F648844209D123
:1032B00001214804FEF719FF00214FF40030FEF70A
:1032C00014FF25E0F048844209D101218804FEF76B
:1032D0000CFF00214FF48020FEF707FF18E0EB48B9
:1032E000844209D10121C804FEF7FFFE00214FF4FA
:1032F0000020FEF7FAFE0BE0E548844208D10121E8
:103300000805FEF7F2FE00214FF48010FEF7EDFEF7
:1033100010BD2DE9F04786B005460E460024A246B2
:1033200000BFA1460027B08900B100BF2F462C8AFC
:103330004CF6FF700440F08804432C82AC894EF6B2
:10334000F3100440B088318908437189084304436D
:10335000AC81AC8A4FF6FF400440B0890443AC8294
:1033600001A8FEF72EFEC648874202D1DDF810A064
:1033700001E0DDF80CA0A88900F4004040B10AEBA0
:10338000CA0000EB0A1031684900B0FBF1F807E011
:103390000AEBCA0000EB0A1031688900B0FBF1F8B3
:1033A0006420B8FBF0F004012009642101FB1089BE
:1033B000A88900F4004040B1322000EBC900B0FB06
:1033C000F1F000F00700044308E0322000EB0910A0
:1033D0006421B0FBF1F000F00F0004432C8106B033
:1033E000BDE8F0874FF41651016000218180C18053
:1033F00001810C21418100218181704710B5024675
:103400000020108A4FF2FF0318400B884C8823439A
:103410008C882343CC8823431843108210BD00219D
:10342000018041808180C180704721B1828942F44E
:103430000052828104E082894DF6FF731A40828136
:103440007047F0B50346002400260025002040F612
:103450006A17B94200D100BF1846C1F3421401F007
:103460001F06012707FA06F5012C01D10C3004E0F4
:10347000022C01D1103000E014301AB107682F433C
:10348000076002E00768AF430760F0BD1AB1838AA6
:103490000B43838202E0838A8B4383827047028AD4
:1034A0004FF6F0731A400282028A0A430282704782
:1034B00082894FF2FF731A40828182890A43828196
:1034C000704721B1828942F00202828104E0828940
:1034D0004FF6FD731A4082817047028A4FF6DF7300
:1034E0001A400282028A0A430282704721B1028A8C
:1034F00042F48042028204E0028A4BF6FF731A40D3
:1035000002827047C1F308028280704701468888B2
:10351000C0F308007047818941F001018181704743
:10352000028BD2B20283028B42EA012202837047ED
:10353000028B02F47F420283028B0A4302837047AC
:1035400021B1828A42F02002828204E0828A4FF610
:10355000DF731A408282704721B1828A42F01002E2
:10356000828204E0828A4FF6EF731A4082827047AB
:1035700021B1828A42F00802828204E0828A4FF6F8
:10358000F7731A408282704721B1828942F4004267
:10359000828103E08289C2F30E028281704721B1E9
:1035A000828A42F40062828204E0828A4FF2FF73D0
:1035B0001A4082827047828A4FF6FB731A408282D9
:1035C000828A0A438282704721B1828A42F00202D3
:1035D000828204E0828A4FF6FD731A40828270472D
:1035E00002460020B1F5007F00D100BF13880B40D8
:1035F0000BB1012000E00020704701F40072B2F529
:10360000007F00D100BFCA430280704770B50246F8
:10361000002400230025002040F66A16B14200D1A4
:1036200000BFC1F3421501F01F03012606FA03F3A0
:10363000012D02D19689334006E0022D02D1168A6F
:10364000334001E0968A33400C12012606FA04F456
:103650001688344013B10CB1012000E0002070BD89
:1036600010B50022002340F66A14A14200D100BF29
:103670000A1201249440A3B2DC43048010BD000070
:10368000003801400044004000480040004C004029
:1036900000500040014600BF704700BF494A1288F1
:1036A00002F04002002AF9D0C2B2464B1B1D1A801C
:1036B000704710B586B00446012144F20400FEF7BD
:1036C000EDFC4FF40070ADF8140003208DF81600E7
:1036D00018208DF8170005A93B48FEF723FA4FF490
:1036E0008060ADF8140004208DF8170005A9364855
:1036F000FEF718FA25208DF8000003208DF8010050
:103700008DF8020001208DF803006846FEF741F9AC
:1037100001940020ADF80800ADF80A00ADF80C00E7
:10372000ADF810000C20ADF80E0001A92548FFF7F8
:10373000F0FD012240F225512248FFF782FE0121CF
:103740002048FFF772FE06B010BD10B540F22551BB
:103750001C48FFF75BFF10B31A48FFF7D7FEC4B24F
:103760001A48008800F40040C8B91848008800F4DE
:10377000804060B10A2C03D000201449088020E06A
:103780001248008840F400401049088019E00D2CD0
:1037900006D10E48008840F480400C49088010E0B3
:1037A0000A480088C0F30D0009490C5407480088F6
:1037B000401C0649088008460088C72801DD002013
:1037C000088010BD00380140000801403C00002086
:1037D0007003002040EA01039B0703D009E008C9F9
:1037E000121F08C0042AFAD203E011F8013B00F8C6
:1037F000013B521EF9D270472DE9F05F05460020CB
:1038000092469B4688460646814640241BE0284651
:1038100041464746224600F042F853465A46C01AEF
:10382000914110D311461846224600F029F82D1A6E
:1038300067EB01084F4622460120002100F020F8E6
:1038400017EB00094E41201EA4F10104DFDC4846BD
:1038500031462A464346BDE8F09F0000064C074D1E
:1038600006E0E06840F0010394E807009847103450
:10387000AC42F6D3FCF73EFC003E0008203E0008B8
:10388000202A04DB203A00FA02F100207047914020
:10389000C2F1200320FA03F3194390407047202A15
:1038A00004DB203A21FA02F00021704721FA02F3EA
:1038B000D040C2F1200291400843194670470000F1
:1038C0000FB4054B10B503A9044A029800F02CF878
:1038D00010BC5DF814FB00009B3600083800002087
:1038E0000FB4084B10B504A902AA039800F01CF805
:1038F000044602A9002000F048FA204610BC5DF8FA
:1039000014FB00008B3D000802E008C8121F08C12C
:10391000002AFAD170477047002001E001C1121F50
:10392000002AFBD1704700002DE9FF4F8DB00F46F4
:103930000546002606E025280BD0DDE90F1290474A
:103940006D1C761C28780028F5D111B03046BDE8F2
:10395000F08F0024A246A1460122EC4900E0044376
:1039600015F8013F203B02FA03F00842F7D128780E
:103970002A2810D06FF02F022878A0F130010929F1
:1039800014D80AEB8A0102EB410144F0020400EB77
:10399000010A6D1CF0E701CF5FEA000A03D544F489
:1039A0000054CAF1000A44F002046D1C28782E2845
:1039B00017D115F8010F44F004042A280ED06FF037
:1039C0002F022878A0F1300109290AD809EB8901D2
:1039D00002EB410100EB01096D1CF2E757F8049B73
:1039E0006D1C28786C280FD006DC4C2817D068286E
:1039F0000DD06A2814D104E0742810D07A280FD191
:103A00000DE044F400140AE044F4801401E044F4AE
:103A100040146978814202D104F580146D1C6D1C3C
:103A20002A786E2A1FD00CDC632A31D004DC002AED
:103A30008BD0582A11D1A3E0642A68D0692A0CD10E
:103A400065E0732A2ED004DC6F2A73D0702A04D16B
:103A50009BE0752A6FD0782A6ED01046DDE90F12F0
:103A60009047761C50E1C4F30250022806D0032888
:103A700009D0042801CF09D0066045E101CFF11734
:103A8000C0E9006140E101CF06803DE106703BE105
:103A900017F8040B8DF8000000208DF80100EB46AC
:103AA000012003E057F804BB4FF0FF3061074FF0EF
:103AB000000102D40DE008F10101884649450FDA02
:103AC0008045F8DB1BF808100029F4D108E008F164
:103AD000010188468142FADB1BF808100029F6D163
:103AE000DDE90F23AAEB08008146214600F036F9F4
:103AF000304400EB080604E0DDE90F121BF8010B6F
:103B00009047B8F10108F7D221464846F7E00A216C
:103B1000C4F302534FF0000B0891022B04D001CFE5
:103B2000C117032B09D00AE0FF1D27F00707F7E8AC
:103B3000020108E032E01FE020E000B2C117042BD0
:103B400001D140B2C117031E71F1000307DA4FF033
:103B5000000CD0EB0C006CEB01012D2302E02305DF
:103B600004D52B238DF82430012303E0E30701D093
:103B70002023F7E7984658E00A2110E010210EE0D4
:103B800010204FF0000B08900CE010214FF0000BBC
:103B900044F004044FF00809089103E008214FF0B5
:103BA000000B0891C4F30253022B04D001CF002173
:103BB000032B06D006E0FF1D27F00707F7E80201F8
:103BC00003E080B2042B00D1C0B24FF000082307FD
:103BD0002BD5702A07D0DDF820C08CF0100C5CEAE1
:103BE0000B0C05D00EE040238DF82430012308E0B3
:103BF00050EA010306D030238DF824308DF82520BB
:103C000002239846DDF820C08CF0080C5CEA0B0C0F
:103C10000BD150EA010301D1630706D530238DF89B
:103C200024304FF00108A9F10109582A04D038A224
:103C30000B9208AA0A920BE03AA2F9E75B46089AAF
:103C4000FFF7DAFD0B9B9B5C0A9A521E0A921370D7
:103C500050EA0102F2D10A98ADEB000000F1200B0E
:103C6000600702D524F4803401E04FF00109D94502
:103C700002DDA9EB0B0000E0002000EB0B0141444A
:103C80000890AAEB010AE00306D4DDE90F232146E0
:103C9000504600F063F806444FF0000908E009A917
:103CA00011F80900DDE90F12904709F10109761CAE
:103CB000C145F4DBE0030CD5DDE90F232146504676
:103CC00000F04CF8064404E0DDE90F123020904784
:103CD000761C0899481E08900029F5DC08E00A982F
:103CE0000A990078491C0A91DDE90F129047761C69
:103CF000BBF10001ABF1010BF1DC21465046DDE9DF
:103D00000F2300F019F806446D1C1BE6092801007A
:103D10003031323334353637383961626364656641
:103D20000000000030313233343536373839414203
:103D300043444546000000002DE9F04104460025BB
:103D40001E461746880404D405E039462020B047B3
:103D50006D1C641EF9D52846BDE8F0812DE9F041BF
:103D6000044600251E469046C80301D5302700E0D2
:103D70002027880404D505E041463846B0476D1C2D
:103D8000641EF9D52846BDE8F0810A68531C0B6013
:103D9000107070474F4D393636332044656D6F20B3
:103DA00056312E303200FFFFFFFFFFFF76616C754A
:103DB00065203D203A202573205B25303278253060
:103DC00032782530327825303278253032782530F7
:103DD00032782530327825303278253032782530E7
:103DE00032782530327825303278253032782530D7
:103DF000327825303278253032785D0A00000000B4
:103E0000203E0008000000204000000008390008A3
:103E1000603E000840000020F80700001839000844
:103E2000000000001100000000A24A040000000091
:103E3000000000000102030406070809000000005A
:103E40000000000000000001020304010203040658
:103E50000708090204060800000000000000000036
:04000005080000ED02
:00000001FF
