:020000040800F2
:1000000068070020010100083505000837050008D1
:100010003B0500083F0500084305000800000000FC
:10002000000000000000000000000000470500087C
:1000300049050008000000004B0500084D050008B8
:100040001B0100081B0100081B0100081B01000820
:100050001B0100081B0100081B0100081B01000810
:100060001B0100081B0100081B0100081B01000800
:100070001B0100081B0100081B0100081B010008F0
:100080001B0100081B0100081B0100081B010008E0
:100090001B0100081B0100081B0100081B010008D0
:1000A0001B0100081B0100081B0100081B010008C0
:1000B0001B0100081B0100081B0100081B010008B0
:1000C0001B0100081B0100081B0100081B010008A0
:1000D0001B0100081B0100081B0100081B01000890
:1000E0001B0100081B0100081B010008DFF80CD0F1
:1000F00002F0AEFF004800478F02000868070020AA
:100100000648804706480047FEE7FEE7FEE7FEE7B1
:10011000FEE7FEE7FEE7FEE7FEE7FEE72F06000844
:10012000ED00000810B50021A54802F08FFC002268
:100130000121A34802F0A5FC10BD10B5044600BF84
:10014000601E84B201219E4802F05AFF00BF0121C7
:100150009B4802F044FF0028F9D0002CF0D110BDDC
:10016000FEB50646012E04D0022E0BD0032E1CD164
:1001700011E000249348006842F21071B0FBF1F0E6
:1001800085B213E001248F4800684FF4FA61B0FB98
:10019000F1F085B20AE040F23F248A4800684FF44B
:1001A0003461B0FBF1F085B200E000BF00BFADF8F4
:1001B0000450ADF800400020ADF80600ADF8020094
:1001C00069467F4802F0E6F800217D4802F0D2FE41
:1001D000012211467A4802F054FC0121784802F0CD
:1001E00035FCFEBD10B504460120FFF7B9FFA0B2F3
:1001F000FFF7A3FFFFF796FF10BD10B500220821FF
:10020000714801F0FAFB002240216F4801F0F5FB34
:10021000002210216C4801F0F0FB002280216A4886
:1002200001F0EBFB4FF4FA60FFF7DCFF012208213D
:10023000654801F0E2FB01224021634801F0DDFB4B
:1002400001221021604801F0D8FB012280215E4884
:1002500001F0D3FB012220215B4801F0CEFB0022FC
:100260004FF40061584801F0C8FB01229102564842
:1002700001F0C3FB00F04BFF04463CB91A2001F02B
:1002800006F900220821504801F0B7FB10BD00F02C
:100290003FF9FFF7B2FF00BF00F04EFA4B49522082
:1002A00000F058FA044624B14849522000F052FAAE
:1002B00004461CBB454A921CA2F10D01501C00F0E3
:1002C000F1FA044600F0DBFA04464049262000F02B
:1002D00041FA04463D49522000F03CFA04463CB93C
:1002E0003A4A921CA2F10D01501C00F0DBFA0446C0
:1002F00000224021344801F080FB04E0012240212B
:10030000314801F07AFB002C4ED130480B38407B4D
:1003100000F02000F8B12E492E4800F06CFB044696
:100320009CB92D482DA10A68026009790171052048
:100330002C49088028492B4800F09EFB04460022E7
:100340001021214801F059FB38E0012210211E48FC
:1003500001F053FB32E0244B00226021032000F027
:1003600043FD044624B91C49012000F078FD0446F1
:100370004CB9A5221021184802F057FE1649012059
:1003800000F09DFD044624B91349012000F067FDEB
:1003900004469CB91021104802F04EFE0E4901207F
:1003A00000F08DFD044609E001221021064801F00D
:1003B00024FB01228021044801F01FFB6CE70000B0
:1003C0000008004004000020000C01403F00002015
:1003D00043010020020000204300002000840000B0
:1003E0000800000000000020A430000810B5012122
:1003F00044F2040001F019FD01210D2001F008FD77
:1004000010BD08B54FF48050ADF8000003208DF802
:10041000020010208DF803006946424801F03CFAC2
:100420004FF46040ADF8000003208DF80200182062
:100430008DF8030069463B4801F02EFA4FF48070B6
:10044000ADF8000003208DF8020010208DF80300A5
:100450006946354801F020FA0420ADF80000032079
:100460008DF8020048208DF8030069462D4801F000
:1004700013FA4FF44060ADF8000003208DF802003D
:1004800010208DF803006946264801F005FAF8208F
:10049000ADF8000003208DF8020014208DF8030051
:1004A0006946204801F0F8F90121204801F0C5FA19
:1004B00008BD10B54FF4E06001F020F910BD00B5A3
:1004C00085B00020ADF800004FF48270ADF8020056
:1004D0004FF40060ADF804000020ADF80600ADF860
:1004E00008004FF40070ADF80A001020ADF80C00C1
:1004F0000020ADF80E000720ADF8100069460C484A
:1005000001F014FD01210A4801F0B5FD05B000BD60
:1005100010B5FFF76BFFFFF7CCFFFFF772FFFFF798
:10052000CEFF10BD000C0140000801400002300069
:1005300000380040704700BFFEE700BFFEE700BF85
:10054000FEE700BFFEE77047704770477047000046
:100550000CB50020019000906C48006840F4803099
:100560006A49086000BF6948006800F400300090E4
:100570000198401C0190009818B90198B0F5A06F3F
:10058000F1D16248006800F4003010B10120009001
:1005900001E0002000900098012843D15C480068E9
:1005A00040F010005A4908600846006820F0030037
:1005B00008600846006840F0020008605348406840
:1005C000524948600846406848600846406840F420
:1005D000806048600846406820F47C104860084607
:1005E000406840F4881048600846006840F0807019
:1005F000086000BF4548006800F000700028F9D08E
:100600004248406820F0030040494860084640687E
:1006100040F00200486000BF3C48406800F00C0019
:100620000828F9D10CBD10B5FFF792FF10BD10B529
:100630003648006840F001003449086008464068C8
:10064000344908403149486008460068324908404A
:100650002E4908600846006820F48020086008469B
:10066000406820F4FE0048604FF41F008860FFF7E8
:10067000DAFF4FF000602949086010BD10B5002175
:1006800000200022214B5B6803F00C0121B10429FA
:1006900006D0082928D107E0214B224C236027E00F
:1006A000214B204C236023E0184B5B6803F470104F
:1006B000164B5B6803F48032022303EB904022B9AF
:1006C0001A4B4343174C23600DE0104B5B6803F457
:1006D000003323B1164B4343124C236003E0124B0B
:1006E0004343104C236003E00D4B0E4C236000BFCE
:1006F00000BF064B5B68C3F303130E4CE15C094B70
:100700001B68CB40074C236010BD00000010024066
:10071000002002400000FFF8FFFFF6FE08ED00E0B9
:1007200000127A0004000020001BB70000093D0001
:10073000808D5B000800002010B5002000F0C9FF8C
:100740003220FFF74FFD012000F0C3FF3220FFF7FA
:1007500049FD10BD70B506460C461A2000F097FE04
:10076000002000F03BFD0821282000F01DFD18218D
:100770002C2000F0F0FC18212D2000F0ECFC0F21C3
:100780002E2000F0E8FC00210C2000F0E4FCC02149
:10079000332000F009FD20210B2000F012FDFA4863
:1007A00046700120F8490870072000F038FD054622
:1007B0004DB9F5480078022804D1F348B0F801009B
:1007C000208000E0F525284670BD70B504460D4632
:1007D000002000F003FD18212C2000F0BCFC1821A3
:1007E0002D2000F0B8FC08212E2000F0B4FC0021E0
:1007F0000C2000F0B0FC0220E34908700846447069
:1008000020218170072000F00AFD06462EB9DE483F
:100810000278411C284602F0F6FB304670BD2DE9F7
:10082000F04104460D461646042000F0D7FC19217D
:100830002C2000F090FC19212D2000F08CFC0021D0
:100840000C2000F088FC0720CF490870084644704F
:10085000702181702968C0F803102979C1710720BF
:1008600000F0DDFC07463FB9C7480078012800D0FA
:10087000F527C548407830703846BDE8F08110B59E
:100880005020C14948700021BF4881700220BE49F4
:100890000870062000F0C3FC0446FF2C00D10024A1
:1008A000204610BD2DE9F04106460C46174621466C
:1008B0009320FFF78AFF05462DB93A46214693203B
:1008C000FFF7ADFF0546002D31D104203070387898
:1008D00000F0040058B3B4F801002080E078A07064
:1008E000E11C9520FFF771FF05462DB93A46E11C42
:1008F0009520FFF794FF0546CDB907203070387872
:1009000000F0040098B1A088A4F80300A0796071F9
:10091000A11D9720FFF759FF05462DB93A46A11DA5
:100920009720FFF77CFF05460DB90A203070284656
:10093000BDE8F08170B504460D46052000F04EFC80
:10094000E02091494870914881788F488170022059
:100950008D490870072000F062FC064646B98A48B7
:100960000278411C284602F04EFB87480078207030
:10097000304670BD01460020844A1279082A01D110
:10098000421CD0B2814A5279042A01D1421CD0B211
:1009900008291FD2DFE801F004050607080F141923
:1009A00000BF00BF00BF00BF0D2202EBC102121A40
:1009B000764B9A7113E0C0F13D02744B9A710EE0D0
:1009C000C0F15D02714B9A7109E0C0F17D026F4B7D
:1009D0009A7104E0C0F1FD026C4B9A7100BF00BF38
:1009E000704770B505460C460CB13B2C02DD28461D
:1009F00000F0F4FB70BD2DE9F04107460C460A20DB
:100A00006249C870402088700020087148714870A1
:100A100021463846FFF78EFF064656BB2078012850
:100A200027DD0225607800F0100008B1681CC5B20F
:100A3000607800F0200028B1605D00115349C87053
:100A4000681CC5B2607800F0400068B1605D00F0DD
:100A5000020010B108204D490871605D00F00100EE
:100A600010B1042049494871617801F00F00FFF787
:100A700081FF3046BDE8F0812DE9F05F05460E4666
:100A80004FF0000AD346D046C1464049C87800F02E
:100A9000A5FBA2203C49487000BF3B48407800F0CD
:100AA000F200A22874D10024384880794044298873
:100AB000884229D23548007940F0120033494979FB
:100AC00008433249497808432146621CD4B22E4A71
:100AD000521C50542D480079082806D10022204687
:100AE000611CCCB22849491C0A5428484079042882
:100AF00006D100222046611CCCB22349491C0A546D
:100B0000224890F806A02AE02048007940F0020030
:100B10001E49497908431D49497801432046621C12
:100B2000D4B2194A521C115418480079082806D129
:100B300000222046611CCCB21349491C0A541348B8
:100B40004079042806D100222046611CCCB20E490F
:100B5000491C0A542878A0EB080000F0FF0A06EBB5
:100B60000801094A521C1019524602F04CFA04EBD3
:100B70000A00054908700548407880F001000349E3
:100B80004870D04481E003E0630100201800002099
:100B9000FE48407800F0F000102839D10124FB48CD
:100BA000407800F0080008B1601CC4B2F7484078F3
:100BB00000F0040008B1601CC4B2F4480078001BC7
:100BC00000F0FF0BF14A521C111906EB09005A46BE
:100BD00002F019FAD9440124ED48007940F0A2004E
:100BE000EB4949780843E9494870E948007930B150
:100BF00000222046611CCCB2E449491C0A54E34857
:100C00000470E348407880F00100E14948703CE01E
:100C1000DE48407800F0F20002281FD10124DB48B2
:100C2000407800F0080008B1601CC4B2D748407892
:100C300000F0040008B1601CC4B2D4480078001B66
:100C400000F0FF0BD14A521C111906EB09005A465D
:100C500002F0D9F909EB0B0028801FE0CB4840785F
:100C600000F0F200F2280ED10124C848407800F0CC
:100C7000080000B10224C54A521C115DC44AD07854
:100C8000FFF7AFFE01E0E02708E0072000F0C7FA19
:100C9000074607B902E0002F3FF4FFAE00BF384619
:100CA000BDE8F09F2DE9F04104460D4616461F466B
:100CB0001B2000F0ECFBB649C87800F08FFA052045
:100CC000B249487008468570082000EAC40006F062
:100CD00007010843AD49C87003200870072000F0E1
:100CE0009EFA8046B8F1000F0AD1A84800780C2877
:100CF00006D1A6480278411C384602F084F901E08A
:100D00004FF0E0084046BDE8F0812DE9F04104468F
:100D10000D4616461F469E49C87800F05FFA1D2012
:100D20009A49487008462168C0F802100021817174
:100D3000C67105724172092094490870072000F0BD
:100D40006EFA80469148407838704046BDE8F081A0
:100D500070B5044650208D49487008462168C0F897
:100D60000210052089490870072000F058FA05464E
:100D7000284670BD2DE9F04180460F4614460520F7
:100D80008349C870402088700020087148714870FD
:100D90002346002211464046FFF784FF054605BB67
:100DA000A07A0611E07A00117949C870E07A00F063
:100DB000010008B108200871E07A00F0020010B1CB
:100DC0000420734948713046FFF7D4FD04F10C0349
:100DD00032460121601CFFF798FF05460DB90C2033
:100DE00038702846BDE8F0812DE9F04105460E46F1
:100DF00090461F46052000F0F1F96448401C396810
:100E00000160B9888180062060490870022000F0E6
:100E100006FA0446B4B906F0800018B161205B49B7
:100E2000487002E060205949487058488570594917
:100E30000968C0F80310062054490870032000F028
:100E4000EEF9044644B90B2000F038F900F0200018
:100E500008B1002400E0FC242046BDE8F08170B514
:100E600006460C46052000F0B9F919212C2000F0A7
:100E700072F919212D2000F06EF908212E2000F0C2
:100E80006AF900210C2000F066F940488670302095
:100E90003E49487002200870072000F0C0F905465E
:100EA0005DB93A480078102801D0F42505E01022F9
:100EB0003649491C204602F0A6F8284670BD70B598
:100EC00005460E46052000F089F918212D2000F076
:100ED00042F919212C2000F03EF9A0202B4948703E
:100EE0000846857002200870072000F098F9044633
:100EF000F82C0CD12548407800F00F0023494870A9
:100F0000084640780A2801D1002400E0F124F4B911
:100F1000052000F063F9102231461C48401C02F005
:100F200072F8102019490870072000F078F904467B
:100F3000F82C0CD11548407800F00F001349487088
:100F4000084640780A2801D1002400E0F124204618
:100F500070BD70B50546052000F040F918212D2020
:100F600000F0F9F819212C2000F0F5F8B02007491D
:100F700048700846857002200870072000F04FF97D
:100F80000446F82C15D10148407805E063010020A3
:100F9000180000203400002000F00F00464948707F
:100FA00008460078012804D1084640780A2800D174
:100FB0000024204670BD2DE9F04106460D46174637
:100FC000052000F00BF918212D2000F0C4F819219C
:100FD0002C2000F0C0F83848467085700220364951
:100FE0000870072000F01BF90446F82C22D1324883
:100FF000407800F00F00304948700846007801281A
:1010000018D1084640780A2814D1052000F0E6F8E7
:1010100029483968C0F801100420274908700720C2
:1010200000F0FDF804460CB1FF2C03D12846FFF771
:1010300090FF04462046BDE8F08170B505460520C6
:1010400000F0CCF818212D2000F085F819212C2073
:1010500000F081F8C22018494870084685700220C7
:101060000870072000F0DBF80446F82C22D1124863
:10107000407800F00F0010494870084600780128B9
:1010800018D1084640780A2814D1052000F0A6F8A7
:10109000002009494870002107488170C170017122
:1010A000042005490870072000F0B9F80446FF2C19
:1010B00000D10024204670BD6301002070B50446B5
:1010C000002500224FF48051FE4800F096FC4FF4BA
:1010D000807040EA442085B200BFFB48008800F0E1
:1010E00002000028F9D0F848001D058000BFF6482E
:1010F000008800F001000028F9D0F348001D0588A1
:1011000001228114EF4800F078FCE8B270BD70B5A0
:1011100000264FF6FF7501221102EC4800F06DFC2D
:101120003220FFF75FF800224FF48071E74800F0AB
:1011300064FC00BF0020FFF7C1FF04466D1E0DB127
:10114000402CF7D10DB9E72603E07F20FFF7B6FF6B
:101150000446304670BD70B504460D4600224FF47B
:101160008051D84800F049FC45EA442086B24FF649
:10117000FF60064000BFD448008800F0020000284D
:10118000F9D0D148001D068000BFCF48008800F08C
:1011900001000028F9D0CC48001D068801228114E6
:1011A000C84800F02AFC70BD70B505460C462846BC
:1011B000FFF784FF064646EA04012846FFF7CBFF07
:1011C00070BD70B505460C462846FFF777FF06460A
:1011D00026EA04012846FFF7BEFF70BD2DE9F04165
:1011E00004464FF4805502270120A0400C30C61958
:1011F000290A1020FFF7AFFFE9B21120FFF7ABFF7C
:10120000C6F307211520FFF7A6FFF1B21620FFF75E
:10121000A2FF33210E20FFF79EFFBDE8F0812DE9EC
:10122000FF5F80464FF0000A4FF0010B0020039053
:101230000290002701900090A8F102000C284AD2E9
:10124000DFE800F0232C4949353E06490F49491A89
:101250001020039040200290002001904020009038
:101260003CE010200390402002900020019040209C
:1012700000904FF0010A31E01020039042200290CC
:10128000102001900220009028E0182003904220B6
:10129000029000200190402000901FE01820039051
:1012A00042200290002001904020009016E018207B
:1012B00003904220029008200190422000900DE00F
:1012C00014200390422002901020019002200090F0
:1012D0004FF0010A02E04FF0E90800BF00BFB8F18B
:1012E000E90F7CD000210846FFF735FF7F2106205B
:1012F000FFF731FF7F210720FFF72DFF0021082096
:10130000FFF729FF00210920FFF725FF0820039997
:10131000FFF721FF09200299FFF71DFF102102208E
:10132000FFF742FF002406E06948015D0520FFF752
:1013300012FF601C84B26648401E0078A042F3DCB5
:1013400041460020FFF707FF4CF2503400BF062053
:10135000FFF7B4FE06460720FFF7B0FE0746601E03
:1013600084B234B10198304018B900983840002850
:10137000EDD0002C47D007F00200002843D10A200E
:10138000FFF79CFE054615B94FF0000B13E005F082
:10139000020010B14FF0EB0B0DE005F0040010B1AE
:1013A0004FF0E80B07E005F0010010B14FF0FE0B25
:1013B00001E04FF0820BBAF1000F2CD00420FFF7B0
:1013C0007DFE06460C20FFF779FE00F007073FB1CF
:1013D000701E07EBC0003E49491E087003E01AE08A
:1013E0003B48401E06704FF0000909E00520FFF75A
:1013F00065FE374901F8090009F1010000F0FF0915
:10140000B145F3DB07E007F0020010B14FF0FF0B2E
:1014100001E04FF0830B00210846FFF79CFE7F217F
:101420000620FFF798FE7F210720FFF794FE00219A
:101430000820FFF790FE00210920FFF78CFE3321E2
:101440000E20FFF788FE80210F20FFF7ADFE8021E0
:101450001420FFF7A9FE0520FEF7C4FE584604B08D
:10146000BDE8F09F70B504460D4600260020FFF74A
:10147000B5FE1748401E4470857002201449491E6D
:1014800008700D20FFF7CBFE0646304670BD70B5E4
:101490000446E0251A2C71D100210846FFF7E2FF2F
:1014A000054625B100210846FFF7DCFF05469821D7
:1014B0000F20FFF750FE92211420FFF74CFE102161
:1014C000022007E0000C01400838004000080140FD
:1014D00064010020FFF73FFE30210320FFF73BFEB1
:1014E00088210C20FFF737FE8D212820FFF733FEDF
:1014F00080212920FFF72FFE01212A20FFF72BFE54
:1015000005212B20FFF727FE00213420FFF723FEC3
:1015100012213820FFF71FFE18212C20FFF71BFE99
:1015200018212D20FFF717FE08212E20FFF713FEAC
:1015300027212F20FFF70FFE00213020FFF70BFEA1
:10154000C0213120FFF707FE12213220FFF703FEF2
:10155000CF213320FFF7FFFD04213520FFF7FBFDEE
:101560007F213720FFF7F7FD0F213920FFF7F3FD2B
:1015700090213620FFF7EFFD6CE0FFE71B2C67D1D1
:1015800004210846FFF76EFF054625B104210846F1
:10159000FFF768FF054698210F20FFF7DCFD922139
:1015A0001420FFF7D8FD10210220FFF7D4FD3021D1
:1015B0000320FFF7D0FD80210C20FFF7CCFD8F2109
:1015C0002820FFF7C8FD8F212920FFF7C4FD012146
:1015D0002A20FFF7C0FD05212B20FFF7BCFD0021CD
:1015E0003420FFF7B8FD12213820FFF7B4FD7B212E
:1015F0002C20FFF7B0FD7B212D20FFF7ACFD08214B
:101600002E20FFF7A8FD00212F20FFF7A4FD0021C9
:101610003020FFF7A0FD01213120FFF79CFD0521BF
:101620003320FFF798FD00213420FFF794FD34218B
:101630003520FFF790FD7F213720FFF78CFD062135
:101640003920FFF788FD9F213620FFF784FD01E058
:10165000FF2070BD1E20FEF7C5FD2846F9E710B536
:1016600004466CB108212820FFF7ABFD04EB840190
:101670004800FEF7B7FD08212820FFF795FD03E09D
:1016800008212820FFF79DFD10BD08281BD2DFE8A8
:1016900000F004050607080E121600BF00BF00BFC9
:1016A00000BF0E2101EBC001134A91700FE03E21F3
:1016B000114A91700BE05E210F4A917007E07E2184
:1016C0000D4A917003E0FE210B4A917000BF00BFEC
:1016D000704770B504462820FFF7F0FC05462CB192
:1016E00045F008012820FFF736FD04E025F0080149
:1016F0002820FFF730FD70BD18000020314901435C
:10170000314A1160704770B5002100230F22C47860
:1017100004B32D4C246804F4E064C4F5E064210AA9
:10172000C1F10403CA40447804FA03F184781440F8
:1017300021430901254C0678A155047804F01F05C2
:101740000124AC4005786D11AD0005F1E025C5F828
:10175000004109E0047804F01F050124AC401C4D51
:101760000678761145F8264070BD1A4A0A400243B1
:10177000154B1B1F1A60704739B1134A121D1268AE
:101780000243114B1B1D1A6006E00F4A121D12681E
:1017900082430D4B1B1D1A607047042808D14FF07F
:1017A000E021096941F004014FF0E022116107E0F6
:1017B0004FF0E021096921F004014FF0E0221161AE
:1017C000704700000000FA050CED00E000E400E0C6
:1017D00080E100E080FFFF1F10B50446CC48844242
:1017E00008D10121042000F02DFB0021042000F08D
:1017F00029FB46E0C748844208D10121082000F0B7
:1018000021FB0021082000F01DFB3AE0C248844281
:1018100008D10121102000F015FB0021102000F05C
:1018200011FB2EE0BD48844208D10121202000F0A8
:1018300009FB0021202000F005FB22E0B84884428B
:1018400008D10121402000F0FDFA0021402000F0E5
:10185000F9FA16E0B348844208D10121802000F053
:10186000F1FA0021802000F0EDFA0AE0AE4884424F
:1018700007D10121801500F0E5FA0021A01500F044
:10188000E1FA10BD10B50121084600F0DBFA002195
:10189000012000F0D7FA10BD2DE9F04102460025E5
:1018A0000026002000230024002791F803C00CF03C
:1018B0000F0591F803C00CF0100CBCF1000F03D021
:1018C00091F802C04CEA050591F800C0BCF1000F88
:1018D00031D0146800202BE04FF0010C0CFA00F31B
:1018E000B1F800C00CEA03069E4220D183004FF0FD
:1018F0000F0C0CFA03F7BC4305FA03FC4CEA040492
:1019000091F803C0BCF1280F06D14FF0010C0CFA7E
:1019100000FCC2F814C00AE091F803C0BCF1480F03
:1019200005D14FF0010C0CFA00FCC2F810C0401CAD
:101930000828D1D31460B1F800C0BCF1FF0F34DD2A
:10194000546800202EE000F1080C4FF0010808FA5E
:101950000CF3B1F800C00CEA03069E4221D18300CB
:101960004FF00F0C0CFA03F7BC4305FA03FC4CEAEA
:10197000040491F803C0BCF1280F05D100F1080C54
:1019800008FA0CF8C2F8148091F803C0BCF1480FB3
:1019900007D100F1080C4FF0010808FA0CF8C2F862
:1019A0001080401C0828CED35460BDE8F0814FF66B
:1019B000FF710180022181700421C17070470246CD
:1019C000002093680B400BB1012000E0002070471D
:1019D0000146886880B2704702460020D3680B40F9
:1019E0000BB1012000E0002070470146C86880B2BA
:1019F000704701617047416170470AB1016100E0C1
:101A000041617047C16070474FF480320A43826180
:101A10008161826182698269704702460020434B7E
:101A200018684FF68073184040EA021008433F4B95
:101A3000186070473E49C8617047F0B50A460023F8
:101A400000240021002500F00046B6F1004F02D12D
:101A5000364EF16901E0354E7168C0F3034583B23B
:101A600000F44016B6F5401F08D121F070612F4EEA
:101A7000766826F070662D4F7E6012E000F48016C6
:101A8000B6F5801F06D1032606FA05F4A14341F0FE
:101A9000706106E0460D360103FA06F6B14341F0E7
:101AA000706122B1460D360103FA06F6314300F0AB
:101AB0000046B6F1004F02D11C4EF16101E01B4E11
:101AC0007160F0BD30B500228B071C0F0F2303FAA5
:101AD00004F2164B08338C1053F824309343134C04
:101AE00008348D1044F8253023468C1053F82430E8
:101AF0008C07240F00FA04F423430C4C08348D1097
:101B000044F8253030BD0A49DC31086070470000D8
:101B100000080140000C0140001001400014014089
:101B200000180140001C014000200140000001405D
:101B300000002042DF48006840F00100DD490860F5
:101B400008464068DC490840DA49486008460068B1
:101B5000DA490840D74908600846006820F4802028
:101B600008600846406820F4FE0048604FF41F00FB
:101B700088607047CF49096821F48031CD4A1160EF
:101B80001146096821F480211160B0F5803F03D02F
:101B9000B0F5802F0ED106E0C649096841F48031C6
:101BA000C44A116007E0C349096841F4A021C14A51
:101BB000116000E000BF00BF704710B50146002271
:101BC000002300204A11012A02D1BA4C236806E002
:101BD000022A02D1B74C236A01E0B64C636A01F0D5
:101BE0001F02012494401C400CB1012000E00020A1
:101BF00010BD38B5002000900024002500BF312022
:101C0000FFF7DBFF05460098401C00900098B0F5F8
:101C1000A06F01D0002DF2D03120FFF7CEFF08B128
:101C2000012400E00024204638BD01460020A14ADE
:101C3000106820F0F80040EAC10010607047A04929
:101C400008607047024600209A4B586820F47C10C8
:101C500042EA01031843974B586070479849086659
:101C6000704701460020934A506820F00300084363
:101C7000506070478F48406800F00C007047014684
:101C800000208C4A506820F0F000084350607047F4
:101C900001460020874A506820F4E0600843506005
:101CA000704701460020834A506820F4605040EAA3
:101CB000C1005060704729B17E4A527A02437D4B81
:101CC0005A7204E07B4A527A82437A4B5A727047C6
:101CD0007B49D8310860704701460020754A50683A
:101CE00020F440400843506070470021714A203280
:101CF0001170704A82F82010012802D004280AD1FD
:101D000004E001216B4A2032117005E00521694A87
:101D10002032117000E000BF00BF704769490860C1
:101D200070476449096A0143624A11627047654914
:101D300044390860704730B5002100220024002398
:101D40005C4D6D6805F00C0121B1042905D008290E
:101D500023D105E05C4D056022E05C4D05601FE08D
:101D6000544D6D6805F47012524D6D6805F4803461
:101D7000022505EB92421CB9554D554305600BE019
:101D80004C4D6D6805F400351DB1524D554305604D
:101D900002E04E4D5543056002E04B4D056000BF2B
:101DA00000BF444D6D6805F0F00109094A4D6B5CB8
:101DB0000568DD4045603F4D6D6805F4E061090A46
:101DC000454D6B5C4568DD4085603A4D6D6805F4B6
:101DD0006051C90A404D6B5C4568DD40C560354DBA
:101DE0006D6805F44041890B3C4D6B5CC568B5FBE3
:101DF000F3F5056130BD29B12E4A526902432D4BDE
:101E00005A6104E02B4A526982432A4B5A61704757
:101E100029B1284A92690243264B9A6104E0254A77
:101E200092698243234B9A61704729B1214AD26952
:101E30000243204BDA6104E01E4AD26982431D4B03
:101E4000DA61704729B11B4AD2680243194BDA6044
:101E500004E0184AD2688243164BDA60704729B111
:101E6000144A12690243134B1A6104E0114A1269C1
:101E70008243104B1A61704712494039086070471D
:101E80000F49C86470470B49C87170470948406AD8
:101E900040F0807007494862704701460020054ABB
:101EA00092680A400AB1012000E000207047014911
:101EB00088727047001002400000FFF8FFFFF6FE36
:101EC000000042428004424200127A00001BB70028
:101ED00000093D00808D5B001F0000202F000020C6
:101EE00010B50446BE48844208D101218014FFF792
:101EF000A9FF0021A014FFF7A5FF16E0B94884420E
:101F000008D101210014FFF7AAFF00212014FFF7D8
:101F1000A6FF0AE0B448844207D10121C013FFF7AD
:101F20009EFF0021E013FFF79AFF10BD10B50022BD
:101F3000028802F441520B884C8823438C88234347
:101F4000CC8823430C8923434C8923438C89234326
:101F5000CC8923431A430280838B4FF2FF742340C2
:101F600083830B8A038210BD2DE9F04F85B00546AF
:101F70000C464FF0000902274FF000084FF0010B0C
:101F80000026B246A88B4FF240010840A8830220E9
:101F90002884B5F81C90A068022801D100BF38E061
:101FA000A08810B94FF0010B01E04FF0020B8D48F3
:101FB000854200D100E000BF6846FFF7BCFEDDF8B7
:101FC00000A0E088B0F5007F0AD14FEA1A2000EBAC
:101FD00080004000A168B0FBF1F0401D86B20BE02C
:101FE0004FEA4B10BAFBF0F000EB80004000A16814
:101FF000B0FBF1F0401D86B20A20B6FBF0F606F009
:102000000108A6EB0800C0F34F074FF6FF7000EA87
:102010000828022F01DBFF2F02DD02274FF0000806
:10202000E08840EA080038432884A088A189084352
:10203000618808432188084340F4006040EA0909A8
:10204000A5F81C9005B0BDE8F08F0021018041800B
:102050008180C180018141818181C181072101820B
:1020600070470021018041808180C1800221816010
:1020700000218181704721B1028842F04002028034
:1020800004E002884FF6BF731A400280704721B106
:10209000828B42F48062828304E0828B4FF6FF33AE
:1020A0001A408283704730B5002400230C110125AB
:1020B000A540ABB21AB185881D43858002E08588B2
:1020C0009D43858030BD1AB183880B43838002E035
:1020D00083888B438380704781817047014688895C
:1020E00070474FF6FF62914204D0028842F480723A
:1020F000028004E002884FF6FF631A4002807047B6
:1021000021B1828842F00402828004E082884FF686
:10211000FB731A408280704702884FF2FF731A40A7
:10212000028002880A4302807047018841F480518E
:102130000180704721B1028842F40052028004E01D
:1021400002884DF6FF731A40028070470246002055
:10215000012901D0108B00E0908A70470146088A5F
:102160007047B1F5804F04D1028842F4804202806A
:1021700004E002884BF6FF731A4002807047024663
:10218000002013890B400BB1012000E000207047B4
:10219000CA4302817047F0B50246002000240023A4
:1021A000002501F00F070126BE40B4B20B11012635
:1021B0009E40B3B2968806EA03051689264016B1FA
:1021C0000DB1012000E00020F0BD10B5002201F0AB
:1021D0000F040123A3409AB2D343038110BD000032
:1021E0000030014000380040003C004010B504467B
:1021F000FE48844208D10121C014FFF723FE0021CC
:10220000E014FFF71FFEC4E0B4F1804F08D10121B4
:102210000846FFF724FE00210120FFF720FEB8E06A
:10222000F348844208D101210220FFF718FE002163
:102230000220FFF714FEACE0EE48844208D10121F1
:102240000420FFF70CFE00210420FFF708FEA0E0A9
:10225000E948844208D101210820FFF700FE00214F
:102260000820FFF7FCFD94E0E448844208D10121F6
:102270001020FFF7F4FD00211020FFF7F0FD88E0AB
:10228000DF48844208D101212020FFF7E8FD00212A
:102290002020FFF7E4FD7CE0DA48844208D10121E8
:1022A0004014FFF7CFFD00216014FFF7CBFD70E075
:1022B000D548844209D10121C804FFF7C3FD00219C
:1022C0004FF40020FFF7BEFD63E0D048844209D1FF
:1022D00001210805FFF7B6FD00214FF48010FFF73C
:1022E000B1FD56E0CA48844209D101214805FFF7F3
:1022F000A9FD00214FF40010FFF7A4FD49E0C548F7
:10230000844208D101214020FFF7A9FD002140208F
:10231000FFF7A5FD3DE0C048844208D1012180209F
:10232000FFF79DFD00218020FFF799FD31E0BB48BC
:10233000844208D101218015FFF791FD0021A015ED
:10234000FFF78DFD25E0B648844209D1012108043C
:10235000FFF778FD00214FF48030FFF773FD18E0A0
:10236000B048844209D101214804FFF76BFD0021E8
:102370004FF40030FFF766FD0BE0AB48844208D114
:1023800001218804FFF75EFD00214FF48020FFF754
:1023900059FD10BD00220288944B98420ED0994BF3
:1023A00098420BD0B0F1804F08D0914B984205D0A5
:1023B000904B984202D0904B984204D14FF68F73C5
:1023C0001A404B881A438D4B984207D08C4B984249
:1023D00004D04FF6FF431A40CB881A4302808B8803
:1023E00083850B880385814B98420BD0854B98429F
:1023F00008D08B4B984205D08A4B984202D08A4B2A
:10240000984201D10B7A038601238382704770B50D
:10241000002400220023058C4FF6FE76354005840B
:10242000028C8388048B4FF68F752C40B51E2C4090
:102430000D882C43751E2A400D892A434D882A4356
:102440006A4DA8420BD06F4DA84208D0744DA842E7
:1024500005D0744DA84202D0734DA84213D14FF657
:10246000F7752A404D892A434FF6FB752A408D881F
:102470002A434FF6FF652B404FF6FF552B408D89C1
:102480002B43CD892B4383800483CD8885860284AA
:1024900070BD70B5002400220023058C4FF6EF7646
:1024A00035400584028C8388048B48F6FF752C40E8
:1024B0004FF6FF452C400D884FF6FF7606EA0525BE
:1024C0002C434FF6DF752A400D8906EA05152A438D
:1024D0004D8806EA05152A43444DA84202D0494DCD
:1024E000A8421DD14FF67F752A404D894FF6FF76E1
:1024F00006EA05152A434FF6BF752A408D8806EA7D
:1025000005152A434FF6FF352B404FF2FF752B4040
:102510008D8906EA85052B43CD8906EA85052B437F
:1025200083800483CD880587028470BD70B5002444
:1025300000220023058C4FF6FF6635400584028C8F
:102540008388848B4FF68F752C404FF6FC752C409A
:102550000D882C434FF6FF552A400D894FF6FF7624
:1025600006EA05252A434D8806EA05252A431F4D1C
:10257000A84202D0234DA8421DD14FF2FF752A4038
:102580004D894FF6FF7606EA05252A434FF6FF35BB
:102590002A408D8806EA05252A434EF6FF752B4012
:1025A0004DF6FF752B408D8906EA05152B43CD8925
:1025B00006EA05152B4383808483CD8885870284B2
:1025C00070BD70B5002200230024058C4EF6FF7606
:1025D00035400584038C8488828B48F6FF752A4039
:1025E0004FF6FF452A400D8820E00000002C0140F6
:1025F0000004004000080040000C004000100040B3
:102600000014004000340140004C014000500140E3
:102610000054014000180040001C00400020004011
:102620000040014000440140004801404FF6FF7661
:1026300006EA05252A434DF6FF752B400D8906EA6B
:1026400005352B434D8806EA05352B43FA4DA84244
:1026500002D0FA4DA84208D14BF6FF752C408D8967
:102660004FF6FF7606EA85152C4384808283CD8859
:10267000A0F84050038470BD828B4FF2FF331A40A4
:102680008283828B4FF6FF7303EA01231A4382830E
:102690007047F0B50C461546002200210026078C35
:1026A0004EF6FF7C07EA0C070784828B018C4FF6FD
:1026B000FF7707EA043640F6FF473A404FF6FF77C8
:1026C00007EA05273A434FF6FF7707EA03373A430D
:1026D000D94FB8420ED0D94FB8420BD0B0F1804F8D
:1026E00008D0D74FB84205D0D64FB84202D0D64F07
:1026F000B84206D14DF6FF77394046F4805739434A
:1027000005E047F6FF57394044F480573943828348
:102710000184F0BD828B4FF6F3731A408283828B63
:102720000A4382837047F0B50C461546002200210B
:102730000026078C4FF6FF6C07EA0C070784828B94
:10274000018C4FF6FF7707EA04264FF60C773A40E4
:102750004FF6FF7707EA03172F433A43B64FB842C5
:102760000ED0B64FB8420BD0B0F1804F08D0B44F66
:10277000B84205D0B34FB84202D0B34FB84206D1E9
:102780004FF6FF57394046F48077394305E04FF262
:10279000FF57394044F48077394382830184F0BD88
:1027A000028B4FF2FF331A400283028B4FF6FF7306
:1027B00003EA01231A4302837047F0B50C4615461D
:1027C000002200210026078C4FF6EF7C07EA0C0759
:1027D0000784028B018C4FF6FF7707EA041640F658
:1027E000FF473A404FF6FF7707EA03373A434FF681
:1027F000FF7707EA05273A438F4FB8420ED08F4F35
:10280000B8420BD0B0F1804F08D08D4FB84205D000
:102810008C4FB84202D08C4FB84206D14FF6DF77CA
:10282000394046F01007394305E04FF65F773940ED
:1028300044F01007394302830184F0BD028B4FF648
:10284000F3731A400283028B0A4302837047F0B588
:102850000C46154600220021068C4FF6FE773E40BE
:102860000684028B018C4FF60C7632407E1C06EA01
:1028700003162E433243704EB0420ED06F4EB0421C
:102880000BD0B0F1804F08D06D4EB04205D06D4EE8
:10289000B04202D06C4EB04206D14FF6FD763140C8
:1028A00044F00106314305E04FF6F576314044F03F
:1028B0000106314302830184F0BD70B505460C4624
:1028C0005D4885420ED05D4885420BD0B5F1804F02
:1028D00008D05B48854205D05A48854202D05A4804
:1028E000854200D100E000BF208850B92389A2882A
:1028F00061882846FFF7ABFFE1882846FFF79EFF77
:1029000025E0208804280AD12389A28861882846E6
:10291000FFF753FFE1882846FFF742FF17E02088C2
:1029200008280AD12389A28861882846FFF7FBFE80
:10293000E1882846FFF7EEFE09E02389A288618836
:102940002846FFF7A6FEE1882846FFF795FE70BDF2
:102950002DE9F04105460C4600260127608808B99C
:10296000022600E00026A088012801D1022700E00D
:1029700001272088A0B92389A28861882846FFF70B
:1029800066FFE1882846FFF759FF23893A4631461A
:102990002846FFF712FFE1882846FFF701FF13E002
:1029A0002389A28861882846FFF707FFE188284627
:1029B000FFF7F6FE23893A4631462846FFF747FFE0
:1029C000E1882846FFF73AFFBDE8F0810A884B8886
:1029D0001A438B881A43CB881A430B891A434B89B5
:1029E0001A438B891A43A0F8442070474FF6FF71B1
:1029F000818000210180C1804180017270470021E7
:102A0000018041808180C180018141818181C181BA
:102A10007047002101804180012181800021C18017
:102A2000018170470021018041808180C180018146
:102A30004181818170470000002C01400034014039
:102A40000004004000080040000C004021B1028852
:102A500042F00102028004E002884FF6FE731A4041
:102A60000280704731B1B0F8442042F40042A0F82F
:102A7000442005E0B0F84420C2F30E02A0F8442040
:102A800070471AB183890B43838102E083898B43AA
:102A9000838170478182704741EA0203A0F8483081
:102AA00070471AB183890B43838102E083898B438A
:102AB0008381704701894FF6F87211400181704798
:102AC0000A46002101894FF68F7319401143018195
:102AD000704730B504460D4629462046FFF7F0FF03
:102AE000208940F00700208130BD2DE9F0410446E7
:102AF0000D4616461F46602D06D13B460122314643
:102B00002046FFF75AFE05E03B46012231462046AB
:102B1000FFF79DFE29462046FFF7D2FF208940F0AF
:102B200007002081BDE8F08130B50C460021018905
:102B3000C9B24FF6FF7505EA03251543254329431E
:102B4000018130BD2DE9F04105460E4617469846F5
:102B5000002443463A4631462846FFF7E5FF2C89D4
:102B60004FF6F870044044F007044FF68F700440AD
:102B700044F070042C81BDE8F081F0B504460D46A8
:102B800016461F463B46324629462046FFF7CCFFF5
:102B9000208940F480402081F0BD01858282704709
:102BA0000A46002101884FF68F73194011430180B6
:102BB0007047F0B50C4615461E4600210022002342
:102BC0000189028B038C4FF6F877394021434FF689
:102BD000FC473A4040F201173A434FF6DD773B405D
:102BE0004FF6FF7707EA06172F433B430181028325
:102BF0000384F0BD0A460021018B4FF68F73194004
:102C00001143018370470A460021018B48F6FF7388
:102C100019404FF6FF7303EA0223194301837047FB
:102C20000A460021818B4FF68F731940114381832F
:102C300070470A460021818B48F6FF7319404FF612
:102C4000FF7303EA022319438183704721B102888D
:102C500042F08002028004E002884FF67F731A403F
:102C60000280704721B1828842F00402828004E031
:102C700082884FF6FB731A408280704721B18288A8
:102C800042F00802828004E082884FF6F7731A400F
:102C90008280704721B1828842F00102828004E084
:102CA00082884FF6FE731A40828070470A460021E0
:102CB000018B4FF6F77319401143018370470A46A1
:102CC0000021018B4FF2FF7319404FF6FF7303EAA7
:102CD00002231943018370470A460021818B4FF676
:102CE000F77319401143818370470A460021818B95
:102CF0004FF2FF7319404FF6FF7303EA02231943A3
:102D0000818370470A460021018B4FF6FB731940FF
:102D10001143018370470A460021018B4FF6FF33B0
:102D200019404FF6FF7303EA0223194301837047EA
:102D30000A460021818B4FF6FB73194011438183B2
:102D400070470A460021818B4FF6FF3319404FF63A
:102D5000FF7303EA02231943818370470A46002167
:102D6000018B4FF67F7319401143018370470A4668
:102D70000021018BC1F30E014FF6FF7303EA02231A
:102D80001943018370470A460021818B4FF67F73F8
:102D900019401143818370470A460021818BC1F39A
:102DA0000E014FF6FF7303EA022319438183704734
:102DB0000A460021018C4FF6FD731940114301842E
:102DC00070470A460021018C4FF6F77319401143F2
:102DD000018470470A460021018C4FF6DF731940C9
:102DE0004FF6FF7303EA02131943018470470A4642
:102DF0000021018C4FF67F7319404FF6FF7303EAF1
:102E000002131943018470470A460021018C4FF6D2
:102E1000FF5319404FF6FF7303EA0223194301845D
:102E200070470A460021018C4FF2FF7319404FF69C
:102E3000FF7303EA02231943018470470A46002105
:102E4000018C4DF6FF7319404FF6FF7303EA02330E
:102E500019430184704730B5002301248C40A3B28C
:102E6000048C9C430484048C02FA01F5ADB22C431B
:102E7000048430BD30B5002304248C40A3B2048CFC
:102E80009C430484048C02FA01F5ADB22C43048403
:102E900030BD70B5034600200024184618300125C7
:102EA0008D40ACB21D8CA5431D8409B1082909D100
:102EB00000EB6100056825F07005056005681543A5
:102EC00005600EE00D1FC5F34E052844056825F486
:102ED000E045056005684FF6FF7606EA02263543B1
:102EE000056070BD21B1028842F00202028004E058
:102EF00002884FF6FD731A400280704721B10288A4
:102F000042F00402028004E002884FF6FB731A408C
:102F10000280704721B1828842F08002828004E002
:102F200082884FF67F731A408280704702884FF67E
:102F3000F7731A40028002880A4302807047828831
:102F40004FF68F731A40828082880A4382807047CE
:102F500002894FF6F8731A40028102890A430281FE
:102F6000704702894FF67F731A40028102890A4333
:102F700002817047818470478185704781867047E0
:102F80000187704781877047A0F84010704702881A
:102F90004FF6FF431A40028002880A4302807047BE
:102FA0000146888E70470146088F70470146888F1A
:102FB00070470146B1F8400070470146888C704761
:102FC0000146088D704702460020138A0B400BB162
:102FD000012000E000207047CA430282704730B5EC
:102FE0000246002000230024158A05EA0103958982
:102FF00005EA010413B10CB1012000E0002030BD4E
:10300000CA430282704740EA01039B0703D009E0EC
:1030100008C9121F08C0042AFAD203E011F8013BC4
:1030200000F8013B521EF9D27047D2B201E000F81D
:10303000012B491EFBD270470022F6E710B513465C
:103040000A4604461946FFF7F0FF204610BD00006F
:10305000064C074D06E0E06840F0010394E80700E5
:1030600098471034AC42F6D3FDF744F8AC30000872
:10307000CC30000802E008C8121F08C1002AFAD1AB
:1030800070477047002001E001C1121F002AFBD1E8
:1030900070474F4D393636332044656D6F205631B9
:1030A0002E303200FFFFFFFFFFFF0000CC30000892
:1030B00000000020340000007430000800310008D7
:1030C00034000020340700008430000800000000B5
:1030D00000A24A04000000000000000001020304F6
:1030E00006070809000000000000000000000001C1
:1030F000020304010203040607080902040608008B
:04000005080000ED02
:00000001FF
